:100000000203DCE88FF0A4CC8BF0A42CFCE98EF08A
:10001000A42CFC8AF0EDA42CFCEA8EF0A4CDA8F070
:100020008BF0A42DCC3825F0FDE98FF0A42CCD3534
:10003000F0FCEB8EF0A4FEA9F0EB8FF0A4CFC5F09E
:100040002ECD39FEE43CFCEAA42DCE35F0FDE43C97
:10005000FC2275F008758200EF2FFFEE33FECD33E2
:10006000CDCC33CCC58233C5829BED9AEC99E58229
:1000700098400CF582EE9BFEED9AFDEC99FC0FD5B5
:10008000F0D6E4CEFBE4CDFAE4CCF9A88222B800A5
:10009000C1B90059BA002DEC8BF084CFCECDFCE570
:1000A000F0CBF97818EF2FFFEE33FEED33FDEC3394
:1000B000FCEB33FB10D703994004EB99FB0FD8E519
:1000C000E4F9FA227818EF2FFFEE33FEED33FDEC62
:1000D00033FCC933C910D7059BE99A4007EC9BFC58
:1000E000E99AF90FD8E0E4C9FAE4CCFB2275F010E4
:1000F000EF2FFFEE33FEED33FDCC33CCC833C81009
:10010000D7079BEC9AE899400AED9BFDEC9AFCE836
:1001100099F80FD5F0DAE4CDFBE4CCFAE4C8F92283
:10012000E8600FECC313FCED13FDEE13FEEF13FFBD
:10013000D8F122D083D082F8E493701274019370C6
:100140000DA3A393F8740193F5828883E47374027A
:1001500093B5F0067403936860E9A3A3A3A380D8C2
:100160008F0B8E0A8D098C08E4F591E50D850CF056
:1001700012013301970001019C000401A400100149
:10018000AC002001B4004001BC008001C4010001AA
:10019000CC0200000001D253C98F803653C98F436F
:1001A000C910802E53C98F43C920802653C98F435D
:1001B000C930801E53C98F43C940801653C98F432D
:1001C000C950800E53C98F43C960800653C98F43FD
:1001D000C9707B407A42790F7800AF0BAE0AAD0947
:1001E000AC0812008EAB13AA12A911A810120003BA
:1001F000C006C007AE0CAF0DAB07AA06E4F9F8D0F5
:1002000007D00612008EC3E49FFFE49EFE74019D9A
:10021000FDE49CFCEFE48F147B407A42790FF8AF49
:100220000BAE0AAD09AC0812008EAB13AA12A911CD
:10023000A810120003C006C007AE0CAF0DAB07AA92
:1002400006E4F9F8D007D00612008EC3E49FFFE45D
:100250009EFE74019DFDE49CFC7808120120E50FD0
:10026000450E601B53C87F8514CC8FCD43C8043026
:10027000CFFD53C8FBE50F150F7002150E80DF226E
:100280008F08A905759101E508B407005047900251
:1002900095F82828730202AA0202B00202B60202EE
:1002A000BC0202C20202C80202CEACB1AEB28025CC
:1002B000ACB3AEB4801FACB5AEB68019ACC2AEC3A1
:1002C0008013ACB9AEBA800DACBDAEBE80077591DF
:1002D00002AC84AE85EB14601414601A1460202400
:1002E000037022E9F45204E9F452068018E9F4524A
:1002F00004E94206800FE94204E9F452068006E967
:100300004204E94206E508B407005041900313F89F
:1003100028287302032802032D0203320203370246
:10032000033C0203410203468CB18EB2228CB38E91
:10033000B4228CB58EB6228CC28EC3228CB98EBAF2
:10034000228CBD8EBE227591028C848E8522E4FBA8
:100350007DA17F011202807B017D427F0412028019
:100360007B017D037F061202806390FF63D8FFE468
:10037000F591F59143B10875910243A701E5A720D6
:10038000E10100750C00750D04750E00750F02E497
:100390007513E8751203F511F510FF7E367D6E7C3E
:1003A00001120160E4F591F59153B1F77591025393
:1003B000A7FEE5A730E10100750C00750D04750E70
:1003C00000750F02E47513E8751203F511F510FFBF
:1003D0007E367D6E7C01120160808E22787FE4F68D
:0803E000D8FD75812002034ED7
:00000001FF
