:10000000024675759103AE058EFBEB600EA8077472
:1000100001088002C333D8FC42FC22A807740108FF
:0A0020008002C333D8FCF452FC2226
:10002B000235A4020376E86480F8E933E833601103
:10003B000460F0ED33EC337009E8FCE9FDEAFEEB0C
:10004B00FF220460DED3EB9FEA9EE99DE8C2E78CBA
:10005B00F0C2F795F0400CE8CCF8E9CDF9EACEFA0E
:10006B00EBCFFB12034185D0F05804700320D5B3BE
:10007B00E80470075002B2D502038092D5EC0460FD
:10008B00F7E4CCC0E0C398F8603B94186008400DCF
:10009B00D0E0FB020358E4FBFAC9FC8028E830E40B
:1000AB0006E4C9FBE4CAFCE830E305E4C9CACBFCAF
:1000BB00E854076010F8C3E913F9EA13FAEB13FBE2
:1000CB00EC13FCD8F130F52FC3E49CFCEF9BFFEE57
:1000DB009AFEED99FDD0E0FBEF4E4D4C701222DBFA
:1000EB000302037DEC2CFCEF33FFEE33FEED33FD0F
:1000FB00ED30E7EB020358EF2BFFEE3AFEED39FD47
:10010B00D0E0FB50130BBB0003020380ED13FDEE9D
:10011B0013FEEF13FFEC13FC020358EC4D6011E8D8
:10012B00497017ED33EC3304600DE4FCFFFEFD2248
:10013B00E933E8330470F802037612034158046084
:10014B0009E4CC248150062850090203802840037F
:10015B0002037DC0E0EB4A7044B98006D0E0FB029D
:10016B00036CEF4E701CBD8008EBFFEAFEE9FD80CF
:10017B00EBE98DF0A4FEE5F002020FE9CDF9EAFE02
:10018B00EBFFEF89F0A4FCE5F0CE89F0A42EFFE4A1
:10019B0035F0CD89F0A42DFEE435F08067EF4E707D
:1001AB0005BD80D780C3EF8BF0A4ACF0EE8BF0A431
:1001BB002CFCE435F0F8EF8AF0A42CE5F038FCE4E5
:1001CB0033CB8DF0A42CFCE5F03BF8EE8AF0A42C9D
:1001DB00FCE5F038F8E433CF89F0A42CFCE5F038DB
:1001EB00CF3400CE89F0A42FFFE5F03EFEE433C9F7
:1001FB008DF0A42EFEE5F039CD8AF0A42FFFE5F0AB
:10020B003EFEE43DFD33D0E0FB50070BBB000F027D
:10021B000380EC2CFCEF33FFEE33FEED33FD0203DA
:10022B0058020380EC5D046005E859047003020377
:10023B0076120341580460F6EC4860F2EC7004FD52
:10024B00FEFF22C860DB2481C85009C398600250AE
:10025B000602037D9850CAF582E9294B4A7005AB1B
:10026B008202036C75F0007C1A7880C3EF9BEE9AC8
:10027B00ED99400DC3EF9BFFEE9AFEED99FDE84221
:10028B00F0DC23ACF0D0E0FFD0E0FED0E0FDAB82A1
:10029B0020E7101BEB60BAEC2CFCEF33FFEE33FEC8
:1002AB00ED33FD020358E803F830E705C0F075F0B5
:1002BB0000EF2FFFEE33FEED33FD40B830E7C28089
:1002CB00AA75F020800E75F010800575F0087D0082
:1002DB007E007F003392D530D50312095DEC33409D
:1002EB0010EF33FFEE33FEED33FDEC33FCD5F0EDC9
:1002FB0022E5F0247EA2D513CC92E7CDCEFF22EDE2
:10030B00D2E7CD33EC3392D524814006E4FFFEFDDA
:10031B00FC22FCE4CFCECDCC24E0501174FF80ED59
:10032B00C3CC13CCCD13CDCE13CECF13CF0470F0E3
:10033B0030D5DE02095DE9D2E7C933E833F892D54F
:10034B00EDD2E7CD33EC33FC5002B2D522EC30E7E3
:10035B00100FBF000C0EBE00080DBD00040BEB60B0
:10036B0014A2D5EB13FCED92E7FD2274FFFCFDFE0E
:10037B00FF22E480F8A2D574FF13FC7D80E480EFAC
:10038B00F920E73624F950037907E4F42402FBE55E
:10039B0082158270021583DBF6E024FB501BE960AB
:1003AB0014E4F0E582158270021583E004F0B40AC0
:1003BB0008E4F0D9EE7401F00A22C2D522ED33EC39
:1003CB003392D5FA602AB4FF33EDC2E77BFF6006A8
:1003DB007A0379EDE4227A0379F620D5047A03794E
:1003EB00F1224E614E002B494E46002D494E4600E0
:1003FB00E47A08F0A3DAFC7B00740722C083C08286
:10040B00ECC0E0EDC0E0EEC0E0EFC0E0EA75F0104C
:10041B00A4CAABF075F04DA42BFBE435F0FCEA2439
:10042B0010FAEB34C5FBEC34D9FCEDC2E7FF75F0E9
:10043B0056A4F42411C5F0F434C58FF0A42AE5F0CA
:10044B003BE43CF020E7141204FDD0E0FFD0E0FECB
:10045B00D0E0FDD0E0FC12022F8014F4041204FD56
:10046B00D0E0FFD0E0FED0E0FDD0E0FC120126D0C2
:10047B0082D083E0FAEDD2E7CD33EC332482FBE478
:10048B00C3CF33CFCE33CECD33CD33DBF37B077539
:10049B00F00A846004F0A31B0AE5F0F0A38FF0745C
:1004AB000AA4FFACF08EF0740AA42CFEACF0500141
:1004BB000C8DF0740AA42CFDE435F0F0A3DBDE7494
:1004CB0007223F8000004120000042C80000447A10
:1004DB000000461C400047C35000497424004B18D1
:1004EB0096804CBEBC205A0E1BCA6753C21C749D0F
:1004FB00C5AEFB60065407601C232312052BEB547F
:10050B00386009120517120526120126ECF8EDF9D1
:10051B00EEFAEFCB22EB12052680F1543803241CA4
:10052B009004CDFE93FC0EEE93FD0EEE930ECE9348
:10053B00FF22E709F608DFFA8046E709F208DFFA3F
:10054B00803E88828C83E709F0A3DFFA8032E309CF
:10055B00F608DFFA8078E309F208DFFA8070888208
:10056B008C83E309F0A3DFFA806489828A83E0A39A
:10057B00F608DFFA805889828A83E0A3F208DFFA53
:10058B00804C80D280FA80C680D4806980F2803320
:10059B00801080A680EA809A80A880DA80E280CAE8
:1005AB00803389828A83ECFAE493A3C8C582C8CCD2
:1005BB00C583CCF0A3C8C582C8CCC583CCDFE9DE2C
:1005CB00E7800D89828A83E493A3F608DFF9ECFABE
:1005DB00A9F0EDFB2289828A83ECFAE0A3C8C582DD
:1005EB00C8CCC583CCF0A3C8C582C8CCC583CCDF2F
:1005FB00EADEE880DB89828A83E493A3F208DFF9E1
:10060B0080CC88F0EF60010E4E60C388F0ED2402C1
:10061B00B4040050B9F582EB2402B4040050AF23AC
:10062B002345822390058D73BB010689828A83E063
:10063B00225002E722BBFE02E32289828A83E493E3
:10064B0022BB010CE58229F582E5833AF583E02292
:10065B005006E92582F8E622BBFE06E92582F8E280
:10066B0022E58229F582E5833AF583E49322BB01E7
:10067B000989828A83F8E028F022500327F722BBEE
:10068B00FE05F8E328F3228A838982F8E493282273
:10069B00BB010FF8E58229F582E5833AF583E02863
:1006AB00F0225009C58229F8E58226F622BBFE0905
:1006BB00C58229F8E22582F222F8EA2583F583E93F
:1006CB00932822BB010689828A83F0225002F722EB
:1006DB00BBFE01F322F8BB010DE58229F582E58310
:1006EB003AF583E8F0225006E92582C8F622BBFED4
:1006FB0005E92582C8F222EF8DF0A4A8F0CF8CF08B
:10070B00A428CE8DF0A42EFE22BC000BBE0029EF38
:10071B008DF084FFADF022E4CCF875F008EF2FFFDD
:10072B00EE33FEEC33FCEE9DEC984005FCEE9DFEAB
:10073B000FD5F0E9E4CEFD22EDF8F5F0EE8420D2F2
:10074B001CFEADF075F008EF2FFFED33FD40079861
:10075B005006D5F0F222C398FD0FD5F0EA22C2D590
:10076B00EC30E709B2D5E4C39DFDE49CFCEE30E729
:10077B0015B2D5E4C39FFFE49EFE120714C3E49D9C
:10078B00FDE49CFC800312071430D507C3E49FFFE4
:10079B00E49EFE22C5F0F8A3E028F0C5F0F8E58250
:1007AB00158270021583E038F022BB0110E5822917
:1007BB00F582E5833AF583E0F5F0A3E0225009E9F1
:1007CB002582F886F008E622BBFE0AE92582F8E2CC
:1007DB00F5F008E222E5832AF583E993F5F0A3E926
:1007EB009322BB010A89828A83F0E5F0A3F02250A1
:1007FB0006F709A7F01922BBFE06F3E5F009F3197A
:10080B0022EF2BFFEE3AFEED39FDEC38FC22E88FA0
:10081B00F0A4CC8BF0A42CFCE98EF0A42CFC8AF079
:10082B00EDA42CFCEA8EF0A4CDA8F08BF0A42DCC7B
:10083B003825F0FDE98FF0A42CCD35F0FCEB8EF0D4
:10084B00A4FEA9F0EB8FF0A4CFC5F02ECD39FEE4BA
:10085B003CFCEAA42DCE35F0FDE43CFC2275F008FF
:10086B00758200EF2FFFEE33FECD33CDCC33CCC5ED
:10087B008233C5829BED9AEC99E58298400CF58208
:10088B00EE9BFEED9AFDEC99FC0FD5F0D6E4CEFB7A
:10089B00E4CDFAE4CCF9A88222B800C1B90059BA68
:1008AB00002DEC8BF084CFCECDFCE5F0CBF9781896
:1008BB00EF2FFFEE33FEED33FDEC33FCEB33FB1090
:1008CB00D703994004EB99FB0FD8E5E4F9FA2278AA
:1008DB0018EF2FFFEE33FEED33FDEC33FCC933C9BC
:1008EB0010D7059BE99A4007EC9BFCE99AF90FD8C6
:1008FB00E0E4C9FAE4CCFB2275F010EF2FFFEE33E6
:10090B00FEED33FDCC33CCC833C810D7079BEC9A24
:10091B00E899400AED9BFDEC9AFCE899F80FD5F0AD
:10092B00DAE4CDFBE4CCFAE4C8F922EF5BFFEE5A34
:10093B00FEED59FDEC58FC22EF4BFFEE4AFEED4964
:10094B00FDEC48FC22CFF4CFCEF4CECDF4CDCCF4DD
:10095B00CC22C3E49FFFE49EFEE49DFDE49CFC22BD
:10096B00EB9FF5F0EA9E42F0E99D42F0EC6480C803
:10097B0064809845F022EB9FF5F0EA9E42F0E99DEA
:10098B0042F0E89C45F022E8600FECC313FCED133A
:10099B00FDEE13FEEF13FFD8F122E8600FEFC33328
:1009AB00FFEE33FEED33FDEC33FCD8F122BB010738
:1009BB0089828A83020A465005E9F8020BBABBFE0C
:1009CB0005E9F8020BC689828A83020A52BB010D24
:1009DB00E58229F582E5833AF583020A465007E959
:1009EB002582F8020BBABBFE07E92582F8020BC67B
:1009FB00E58229F582E5833AF583020A52BB0107AA
:100A0B0089828A83020ABE5005E9F8020BFCBBFE01
:100A1B0005E9F8020C0822BB010DE58229F582E5F8
:100A2B00833AF583020ABE5007E92582F8020BFCD4
:100A3B00BBFE07E92582F8020C0822E0FCA3E0FDCF
:100A4B00A3E0FEA3E0FF22E493FC740193FD740288
:100A5B0093FE740393FF22E0F8A3E0F9A3E0FAA35B
:100A6B00E0FB22BB010789828A83020A625005E9F7
:100A7B00F8020BD2BBFE05E9F8020BDF89828A83F1
:100A8B00020BECBB010DE58229F582E5833AF58378
:100A9B00020A625007E92582F8020BD2BBFE07E976
:100AAB002582F8020BDFE58229F582E5833AF5838F
:100ABB00020BECECF0A3EDF0A3EEF0A3EFF022A809
:100ACB00828583F0D083D082120AE1120AE1120AE6
:100ADB00E1120AE1E473E493A3C583C5F0C583C8AF
:100AEB00C582C8F0A3C583C5F0C583C8C582C8221B
:100AFB00BB010DE58229F582E5833AF583020ACA2B
:100B0B005007E92582F8020C14BBFE07E92582F891
:100B1B00020C2D22A42582F582E5F03583F5832284
:100B2B00E0FBA3E0FAA3E0F922F8E0FBA3A3E0F9D2
:100B3B0025F0F0E582158270021583E0FA38F02279
:100B4B00EBF0A3EAF0A3E9F022D083D082F8E49390
:100B5B007012740193700DA3A393F8740193F58233
:100B6B008883E4737402936860EFA3A3A380DFD040
:100B7B0083D082E4937012740193700DA3A393F846
:100B8B00740193F5828883E4737402936C7012740E
:100B9B0003936D700C7404936E70067405936F6001
:100BAB00DDA3A3A3A3A3A380CA8A838982E473E6EC
:100BBB00FC08E6FD08E6FE08E6FF22E2FC08E2FD83
:100BCB0008E2FE08E2FF22E6FB08E6F908E6FA086F
:100BDB00E6CBF822E2FB08E2F908E2FA08E2CBF8EE
:100BEB0022E493F8740193F9740293FA740393FB60
:100BFB0022ECF608EDF608EEF608EFF622ECF2081A
:100C0B00EDF208EEF208EFF222D083D082E493F6F5
:100C1B0008740193F608740293F608740393F67440
:100C2B000473D083D082E493F208740193F20874B6
:100C3B000293F208740393F274047360C402F20318
:100C4B00020303000300020100030003010202027E
:100C5B000302010103000101010102030703080064
:100C6B00080007010403040305020702080205013B
:100C7B0008000501050107030B030E000E000B0115
:100C8B00090309030A020B020E020A010E000A01F4
:100C9B000A010B0311031200120011010F030F03C2
:100CAB0010021102120210011200100110011103A7
:100CBB001503160016001501130313031402150276
:100CCB0016021401160014011401150319031A005E
:100CDB001A00190117031703180219021A02180137
:100CEB001A00180118011900000000000000000094
:100CFB0000000000000000000000000000000000E9
:100D0B00000000602A050407000601040104000529
:100D1B000006000501070206030403040205020690
:100D2B00020503070406050405040405040604056F
:100D3B0005602A046F070706080408040705070661
:100D4B000705080709060A040A0409050906090527
:100D5B000A070B060E040E040B050B060B050E60A3
:100D6B005404B0070F06100410040F050F060F05EF
:100D7B0010071106120412041105110611051207B2
:100D8B001306140414041305130613051407150690
:100D9B00160416041505150615051607170618046F
:100DAB001804170517061705180719061A041A044D
:100DBB001905190619051A60B803B70000110002CE
:100DCB0080000000000000000000000039000F3F11
:100DDB00C015400000044080002200003F000606C2
:100DEB001B060F0626062D063D0007063F062F00A5
:100DFB0000000021000000084014033FFF063723CA
:100E0B00390039213906390631043D063610800088
:100E1B000E2330003801762076003F0633203F2327
:100E2B0031062D1081003E0930283629401140092A
:100E3B000900390900000F280000080040121806AD
:100E4B003C0618061E0A180231048F1230100000DF
:100E5B000E2330003816141404061C0331044714F7
:100E6B000024080238101808102814294004460AD8
:100E7B00080000540542003F0006005B004F00666F
:100E8B00006D007D0007007F006F54049A003F0047
:100E9B0006005B004F0066006D007D0007007F00C1
:100EAB006F54052E003F0006005B004F0066006D7F
:100EBB00007D0007007F006F410556004103B6001F
:100ECB00410499004104AE014102EE004102EFFFE3
:100EDB00410154004100F9004400F5000000004AB4
:100EEB00005F0101015600000206050641002000CB
:100EFB0041006A00410069014100213241000000BC
:100F0B0060C4055703020303000300020100030042
:100F1B0003010202020302010103000101010102AC
:100F2B000307030800080007010403040305020775
:100F3B00020802050108000501050107030B030E5A
:100F4B00000E000B01090309030A020B020E020A31
:100F5B00010E000A010A010B03110312001200110A
:100F6B00010F030F031002110212021001120010E5
:100F7B0001100111031503160016001501130313BD
:100F8B0003140215021602140116001401140115A4
:100F9B000319031A001A0019011703170318021972
:100FAB00021A0218011A001801180119000000009A
:100FBB000000000000000000000000000000000026
:100FCB000000000000000000602A07650700060112
:100FDB0004010400050006000501070206030403D3
:100FEB0004020502060205030704060504050404B2
:100FFB00050406040505602A06D30707060804083E
:10100B0004070507060705080709060A040A040969
:10101B0005090609050A070B060E040E040B050B42
:10102B00060B050E60540711070F06100410040F72
:10103B00050F060F051007110612041204110511F6
:10104B0006110512071306140414041305130613D3
:10105B0005140715061604160415051506150516B1
:10106B00071706180418041705170617051807198C
:10107B00061A041A041905190619051A60B8061B75
:10108B0000001100028000000000000000000000C2
:10109B000039000F3FC015400000044080002200C3
:1010AB00003F0006061B060F0626062D063D000711
:1010BB00063F062F0000000021000000084014032B
:1010CB003FFF063723390039213906390631043DF4
:1010DB0006361080000E2330003801762076003F54
:1010EB000633203F2331062D1081003E0930283670
:1010FB0029401140090900390900000F2800000898
:10110B0000401218063C0618061E0A180231048FFE
:10111B0012301000000E2330003816141404061C75
:10112B00033104471400240802381018081028143F
:10113B00294004460A0800005407A3003F0006009C
:10114B005B004F0066006D007D0007007F006F5451
:10115B0006FD003F0006005B004F0066006D007D42
:10116B000007007F006F54078F003F0006005B00F5
:10117B004F0066006D007D0007007F006F60C407A5
:10118B00B703020303000300020100030003010283
:10119B000202030201010300010101010203070323
:1011AB0008000800070104030403050207020802F4
:1011BB00050108000501050107030B030E000E00D6
:1011CB000B01090309030A020B020E020A010E00AE
:1011DB000A010A010B0311031200120011010F0384
:1011EB000F03100211021202100112001001100164
:1011FB001103150316001600150113031303140234
:10120B00150216021401160014011401150319031B
:10121B001A001A00190117031703180219021A02F0
:10122B0018011A0018011801190000000000000035
:10123B0000000000000000000000000000000000A3
:10124B000000000000602A09C50700060104010424
:10125B00000500060005010702060304030402054E
:10126B00020602050307040605040504040504062B
:10127B00040505602A093307070608040804070557
:10128B0007060705080709060A040A0409050906E3
:10129B0009050A070B060E040E040B050B060B05BE
:1012AB000E60540971070F06100410040F050F068A
:1012BB000F05100711061204120411051106110572
:1012CB00120713061404140413051306130514074D
:1012DB00150616041604150515061505160717062B
:1012EB0018041804170517061705180719061A040A
:1012FB001A041905190619051A60B8087B000011A4
:10130B000002800000000000000000000000390017
:10131B000F3FC015400000044080002200003F003A
:10132B0006061B060F0626062D063D0007063F0682
:10133B002F0000000021000000084014033FFF06AF
:10134B003723390039213906390631043D06361069
:10135B0080000E2330003801762076003F063320C4
:10136B003F2331062D1081003E09302836294011CC
:10137B0040090900390900000F280000080040123D
:10138B0018063C0618061E0A180231048F1230107C
:10139B0000000E2330003816141404061C0331040D
:1013AB004714002408023810180810281429400488
:1013BB00460A080000540A03003F0006005B004F7A
:1013CB000066006D007D0007007F006F54095D0013
:1013DB003F0006005B004F0066006D007D000700BC
:1013EB007F006F5409EF003F0006005B004F006663
:1013FB00006D007D0007007F006F00E5082485F578
:10140B0082E43400F583E005082290008230080363
:10141B00900085E475F001120B340206332001E9CC
:10142B007F2ED2018018EF540F2490D43440D4FF78
:10143B0030050BEF24BFB41A0050032461FFE509FC
:10144B0060021509050CE50C7002050B30080E90B7
:10145B000082E475F001120B34EF0206CE024EE966
:10146B007403D2088003E4C208F508900082120BC3
:10147B004BE4F509F50BF50CE50960077F20121419
:10148B004980F5750AFFC202C201C203C204C2063B
:10149B00C207C209121415FF700D3008057F001228
:1014AB00145AAF0CAE0B22B4255FC2D5C205121471
:1014BB0015FF24D0B40A00501A75F00A780930D5FC
:1014CB000508B6FF0106C6A426F620D5047002D285
:1014DB000480D924CFB41A00EF5004C2E5D2050220
:1014EB00174CD20280C6D20180C0D20380BCD2D5A9
:1014FB0080BAD20680B47F201214492003077401EE
:10150B00B5090040F1121406FF121449021483D2DC
:10151B0009D2078095121406FB121406FA12140650
:10152B00F94A4B7006794A7A187BFF20032EE5099E
:10153B00602A7E008E8275830012064C60060EEECA
:10154B00650A70F0C2D5EBC0E0EAC0E0E9C0E0EE9E
:10155B001217ADD0E0F9D0E0FAD0E0FB120633FF62
:10156B0060AAEBC0E0EAC0E0E9C0E0121449D0E0A9
:10157B002401F9D0E03400FAD0E0FBE50A0460DC8A
:10158B00D50AD98087D20380A212178F60F7E50A9C
:10159B0070010412038BA90A600DE50A600914F5AA
:1015AB000A121837EF60F3EA30E702F404C39950DC
:1015BB0079EAF4250A0430E701E404F50A800D12F8
:1015CB00178F60C1EA050A250A12038BEA9000B156
:1015DB00F030E701E4250A04D50A042006011412B1
:1015EB0017ADE4C0E01218379000B1E0601320E7AC
:1015FB000714F0121431802204F0D0E014C0E07F05
:10160B0000121431E50A6007121428150A800B30FA
:10161B000603121428D0E0021483D0E00480C41215
:10162B00178F609EE50A0412038B9000B1EAF0E578
:10163B000A20060260010424041217AD74FF04C0D3
:10164B00E0121837121431E50A2006026003121457
:10165B0028D0E0B50AE87F4512143B9000B1E07F3B
:10166B002B30E7047F2DF404C0E0121449D0E07551
:10167B00F00A84C0F0121432D0E012143202148338
:10168B00791080027908C207C2098008D2D5790A7D
:10169B008004790AC2D5E50A047002F50AE4FAFD62
:1016AB00FEFF121406FC7B08200213121406FD7BAE
:1016BB001030010A121406FE121406FF7B20EC33C5
:1016CB0082D592D55013C3E43001069FFFE49EFEF2
:1016DB00E42002039DFDE49CFCE4CBF8C202EC7019
:1016EB000CCFCECDCCE824F8F870F38017C3EF33D2
:1016FB00FFEE33FEED33FDEC33FCEB33FB99400295
:10170B00FB0FD8E9EB300205F8D0E0C448B202C0B9
:10171B00E00AEC4D4E4F78207B0070C2EAB50A0010
:10172B0040BCC0E01217AFD0F0D0E0200204C4C020
:10173B00E0C4B202C0F0121432D0F0D5F0EB0214B8
:10174B0083120B54152053168B5814F14C14ED4285
:10175B00168F4F169744169749150643169D551528
:10176B00CA46162A45159447186A5014F52D14F9D4
:10177B002E151C2B14FD23151A2018532A14B548AB
:10178B0000001514E50AB4FF03750A06121406FCD3
:10179B00121406FD121406FE121406FF9000AA0284
:1017AB0003C8790AA2D5200414300609B910020423
:1017BB0004B9080104A2D5200702500104200368D4
:1017CB009203B509005034C0E07F203004197F30FC
:1017DB00A20372077206500F121806C203C207C289
:1017EB0006C2097F30800F300603E9C0E0121449AE
:1017FB00300603D0E0F9D0E0B509CC3006177F30C6
:10180B00B9100C1214497F583005077F788003B943
:10181B0008031214493003057F2D0214497F202041
:10182B0009F87F2B2007F322920380CF7F00B407A8
:10183B0000500B24AAF582E43400F583E0FF222844
:10184B006E756C6C2900D2021214063002F8C202BB
:10185B00780930D50108F60214B52D5043495812BA
:10186B0014062403B405004001E490186593121488
:10187B003A743A12143AD20475090402168B90008A
:10188B0082120B4B124F9C900094120B4B124FA3D6
:10189B00900097120B4B124EFD90009A120B4B902F
:1018AB0002EB740FF01247A290008D120ABEE4FFF8
:1018BB00FEFDFC90008D120A62C312098160149028
:1018CB00008D120A4690009A120B2B900014120AEC
:1018DB0022801390009A120B2B900014120AFB001B
:1018EB0000EE807FFF2290008D120A46EF2404FF4A
:1018FB00E43E8F82F583120A5290009A120B2B1240
:10190B000A0890008D120A46EF2408FFE43E8F82EE
:10191B00F583120A52900085120ABE90009A120BA0
:10192B002BE92404F9E43AFA900091120B4B900046
:10193B0085120A46900091120B2B120A0890009AFE
:10194B00120B2B90000512064CF9E47F01FEFDFCF7
:10195B00A8011209A5C004C005C006C00790009AD3
:10196B00120B2B90000412064CF9E47F01FEFDFCD8
:10197B00A8011209A5D003D002D001D0001209434F
:10198B0090009A120B2B120A6E12094390008212CE
:10199B000B2B120A0890008D120A46EF240CFFE461
:1019AB003E8F82F583120A52900085120ABE900078
:1019BB009A120B2BE92408F9E43AFA900091120BD6
:1019CB004B900085120A46900091120B2B120A08BD
:1019DB0090008D120A46EF2410FFE43E8F82F583B0
:1019EB00120A5290009A120B2B90000C120A2290A2
:1019FB00008D120A46EF2414FFE43E8F82F583120A
:101A0B000A5290009A120B2B900010120A2290008F
:101A1B0082120B2BC003C002C0011209B890009AAE
:101A2B00120B2B90000C120A8E120943D001D0021C
:101A3B00D003120A08900082120B2BC003C002C005
:101A4B00011209B890009A120B2B900010120A8EFB
:101A5B00120943D001D002D003120A0890008D1254
:101A6B000A46EF241CFFE43E8F82F583120A529044
:101A7B000085120ABE90009A120B2BE92418F9E488
:101A8B003AFA900091120B4B900085120A46900087
:101A9B0091120B2B120A0890008D120A46EF24208C
:101AAB00FFE43E8F82F583120A52900085120ABE24
:101ABB00900094120B2B900091120B4B90008512FF
:101ACB000A46900091120B2B120A08900094120BED
:101ADB002B90000374191206E090008D120A46EF4A
:101AEB002424FFE43E8F82F583120A529000851264
:101AFB000ABE900094120B2BE92404F9E43AFA90F5
:101B0B000091120B4B900085120A46900091120B1C
:101B1B002B120A0890008D120A46EF2428FFE43E90
:101B2B008F82F583120A52900085120ABE900094A0
:101B3B00120B2BE92408F9E43AFA900091120B4BA3
:101B4B00900085120A46900091120B2B120A0890F6
:101B5B000089120ACA000000009002EBE0FFE4FCCF
:101B6B00FDFE900089120A62C3120981507BE47F4B
:101B7B0004FEFDFC900089120A62120819AB07AA39
:101B8B000690008D120A46EF2480FFE43ECF2BCF48
:101B9B003A8F82F583120A52900085120ABEE47FB7
:101BAB0004FEFDFC900089120A621208199000973E
:101BBB00120B2BE92FF9EA3EFAEB3DFB9000911249
:101BCB000B4B900085120A46900091120B2B120AB8
:101BDB0008900089120A46E47B01FAF9F812080C06
:101BEB00900089120ABE021B6490009A120B2B9074
:101BFB0000141209D8E42FFFEE3401FEE43DFDE49E
:101C0B003CFC90008D120ABE900089120ACA00009B
:101C1B0000009002EBE0FFE4FCFDFE900089120A4D
:101C2B0062C31209814003021CD3E47F02FEFDFC58
:101C3B00900089120A62120819AB07AA0690008D50
:101C4B00120A46EF2BFFEE3A8F82F583E493FF9057
:101C5B000089120A629000FA75F002EB120B1FEA70
:101C6B0025E02583F583EFF0E47F02FEFDFC900079
:101C7B0089120A62120819AB07AA0690008D120A84
:101C8B0046EF2BFFEE3ACF2401CF34008F82F58342
:101C9B00E493FF900089120A629000FB75F002EB4F
:101CAB00120B1FEA25E02583F583EFF090008912D4
:101CBB000A46EF2401FFE43EFEE43DFDE43CFC90CC
:101CCB000089120ABE021C1D9000697401F07F008E
:101CDB0022900086120ABE90008AEBF0A3EAF0A3D2
:101CEB00E9F090008AE0FBA3E0FAA3E0F9124ED4EE
:101CFB00E4FCFD900099120ABE900091120ACA00F2
:101D0B00000000900086E0A3E0A3E0FEA3E090506B
:101D1B002575F008120B1FEE75F008A42583F583CB
:101D2B00E493FFE4FCFDFE900091E0F8A3E0F9A33F
:101D3B00E0FAA3E0FBC312098140030221189000D3
:101D4B0099E0FCA3E0FDA3E0FEA3E0FF900091E08F
:101D5B00F8A3E0A3E0A3E0C3120981501D90008A11
:101D6B00E0FBA3E0FAA3E0F9120633FF3395E0FEA4
:101D7B00FDFC900095120ABE800A900095120ACACB
:101D8B0000000020E4FFFEFDFC900086E0F8A3E0DD
:101D9B00F9A3E0FAA3E0FBC31209817075900095DB
:101DAB00E0FCA3E0FDA3E0FEA3E024E0FFEE34FFA4
:101DBB00FEED34FFFDEC34FFFC900095120ABEE4FF
:101DCB007F02FEFDFC900095E0F8A3E0F9A3E0FA9A
:101DDB00A3E0FB120819900086E0A3E0A3E0FAA3AE
:101DEB00E090502775F008120B1FEA75F008A42538
:101DFB0083F583E493FB740193FA740293F98F8256
:101E0B008E831207B5FF9000A5E5F0F0A3EFF0026B
:101E1B001ECCE47F30FEFDFC900095E0F8A3E0F9CA
:101E2B00A3E0FAA3E0FBC31209815003021EC5E431
:101E3B007F39FEFDFC900095E0F8A3E0A3E0A3E062
:101E4B00D31209815074900095E0FCA3E0FDA3E050
:101E5B00FEA3E024D0FFEE34FFFEED34FFFDEC34A7
:101E6B00FFFC900095120ABEE47F02FEFDFC900081
:101E7B0095E0F8A3E0F9A3E0FAA3E0FB12081990B0
:101E8B000086E0A3E0A3E0FAA3E090502775F008EA
:101E9B00120B1FEA75F008A42583F583E493FB74FA
:101EAB000193FA740293F98F828E831207B5FF9018
:101EBB0000A5E5F0F0A3EFF08007E49000A5F0A3F8
:101ECB00F090008D120ACA00000000900086E0A37B
:101EDB00E0A3E0FEA3E090502675F008120B1FEE76
:101EEB0075F008A42583F583E493FFE4FCFDFE90D5
:101EFB00008DE0F8A3E0F9A3E0FAA3E0FBC312091D
:101F0B008140030220E6900086E0A3E0A3E0FEA35D
:101F1B00E090502675F008120B1FEE75F008A42503
:101F2B0083F583E493FFE4FCFDFE900091E0F8A3BE
:101F3B00E0F9A3E0FAA3E0FB120819E47B02FAF93B
:101F4B00F8120819900086E0A3E0A3E0FAA3E09052
:101F5B00502A75F008120B1FEA75F008A42583F5BB
:101F6B0083E493FB740193FA7402932FF9EA3EFA1C
:101F7B00EB3DFBC003C002C001E47F02FEFDFC9001
:101F8B00008DE0F8A3E0F9A3E0FAA3E0FB12081937
:101F9B00D001D002D003E92FF9EA3EFAEB3DFB1258
:101FAB000633FFE4FCFDFE90009D120ABE900086F6
:101FBB00E0A3E0A3E0FEA3E090502675F008120B1F
:101FCB001FEE75F008A42583F583E493FFE4FCFD75
:101FDB00FE900091E0F8A3E0F9A3E0FAA3E0FB1276
:101FEB000819E47B02FAF9F8120819900086E0A3AD
:101FFB00E0A3E0FAA3E090502A75F008120B1FEA59
:10200B0075F008A42583F583E493FB740193FA74AC
:10201B0002932FF9EA3EFAEB3DFBC003C002C0016D
:10202B00E47F02FEFDFC90008DE0F8A3E0F9A3E055
:10203B00FAA3E0FB120819D001D002D003E92FF963
:10204B00EA3EFAEB3DFB90000112064CFFE4FCFD6F
:10205B00FE9000A1120ABE90008DE0A3E0A3E0A3C6
:10206B00E0FF7E007401A807088005C333CE33CE92
:10207B00D8F9FF9000A5E05EFEA3E05F4E601B90D9
:10208B00009DE0A3E0A3E0A3E0FFA3E0A3E0A3E0B7
:10209B00A3E0FD7B01120003801990009DE0A3E0FB
:1020AB00A3E0A3E0FFA3E0A3E0A3E0A3E0FDE4FB38
:1020BB0012000390008DE0FCA3E0FDA3E0FEA3E083
:1020CB00FFE4FAF9F8EF2401FFEA3EFEE93DFDE8F3
:1020DB003CFC90008D120ABE021ED690008BE4755C
:1020EB00F00112079F900091E0FCA3E0FDA3E0FE3E
:1020FB00A3E0FFE4FAF9F8EF2401FFEA3EFEE93D25
:10210B00FDE83CFC900091120ABE021D0E229000CD
:10211B00A0EFF0A3120B4BE49000A8F0124EFD9031
:10212B0000141209D8EF2480FFE43EFEE43DFDE4E9
:10213B003CFC9000A9120ABE9000141209D8E42F9F
:10214B00FFEE3401FEE43DFDE43CFC9000AD120AD1
:10215B00BE9002ECE064017018A3E064017007907C
:10216B0000A504F08005E49000A5F09000A5E0FF29
:10217B00229000AD120A46AD07AC069000A0E075A8
:10218B00F002A42DFFE5F03C8F82F583E4939000E1
:10219B00B1F09000AD120A46AD07AC069000A0E07E
:1021AB0075F002A4FF2DFFE5F03CCF2401CF3400E6
:1021BB008F82F583E4939000B2F09000B1E0F4606D
:1021CB0015900001120B2B90000A12064CFF900089
:1021DB00B1E0FD12451E9000B2E0F46015900001D5
:1021EB00120B2B90000A12064CFF9000B2E0FD126E
:1021FB00451E9000A0E025E025E02424F582E43480
:10220B0000F583E09000A7F09000A9120A46EF2496
:10221B0003FDE43EFC9000A0E075F004A42DFFE567
:10222B00F03C8F82F583E4939000A6F09000A0E041
:10223B0025E025E02423F582E43400F583E0FF90CC
:10224B0000A6E02FFFE433AB07FAD3EB94FFEA943D
:10225B000040047A007BFF9000A0E0FF9000A7E015
:10226B00FD1237129000A4EFF0E0FF3395E0FEEF84
:10227B004E70569000A0E025E025E02423F582E483
:10228B003400F583E0FB9000A0E0FF9000A7E0FD99
:10229B001237129000A4EFF0E0FF3395E0FEEF4E03
:1022AB00705B9000A0E025E025E02423F582E43468
:1022BB0000F583E0FB9000A0E0FF9000A7E0FD128B
:1022CB00415D9000A4EFF080349000A4E09000B347
:1022DB00F09000A6E0FF9000B3E02FFFE433FED3B5
:1022EB00EF9478EE6480948040089000A47478F0AA
:1022FB00800B9000A6E0FF9000A4E02FF09000B1BF
:10230B00E0F46005E0FF124B0E9000B2E0F46005C4
:10231B00E0FF124B0E90005FE0640170589000A03C
:10232B00E02453F582E43402F583E0FF3395E0FEBD
:10233B00900065E0FD7C00120702AA06AB07900037
:10234B00A4E0FF3395E0FE900066E0FD120702EB80
:10235B002FFFEA3EFE900065E0FDA3E02DFDE43388
:10236B00FC1207699000A0E02453F582E43402F5D7
:10237B0083EFF080149000A4E0FF9000A0E02453C2
:10238B00F582E43402F583EFF09000A0E02453F5DE
:10239B0082E43402F583E0FF9000A0E025E025E025
:1023AB002425F582E43400F583EFF09000A0E025BE
:1023BB00E025E02425F582E43400F583E0FF90006E
:1023CB00A1120B2BEF1206CE900060E0603690004E
:1023DB00A0E0FF2453F582E43402F583E0FD123BC9
:1023EB00049000A5EFF0E0FF3395E0FEEF64024EA2
:1023FB00700B9000A804F09000A5F08047E49000CB
:10240B00A5F080409000A9120A46EF2403FDE43E9C
:10241B00FC9000A0E075F004A42DFFE5F03C8F824A
:10242B00F583E4939000A6F0E0FF9000A4E0FED3C8
:10243B00EF6480F8EE648098400A9000A87401F075
:10244B009000A5F0900061E0640170329000A8E06C
:10245B0070179000A0E0FF2453F582E43402F5835B
:10246B00E0FB7D011243B480159000A0E0FF2453E4
:10247B00F582E43402F583E0FBE4FD1243B49000F3
:10248B00A5E0FF22900086120ABE900092120ACAA3
:10249B0000000001900086E0A3E0A3E0FEA3E09023
:1024AB00502575F008120B1FEE75F008A42583F567
:1024BB0083E493FFE4FCFDFE90009E120ABEE4FF52
:1024CB00FEFDFC90009EE0F8A3E0F9A3E0FAA3E088
:1024DB00FBC3120981700302280390009EE0FCA34A
:1024EB00E0FDA3E0FEA3E0FF74FFEF24FFFFEE345B
:1024FB00FFFEED34FFFDEC34FFFC90009E120ABE94
:10250B00900092E0F8A3E0F9A3E0FAA3E0FB9000BF
:10251B008AE0FCA3E0FDA3E0FEA3E0FF1208A4E425
:10252B007B0AFAF9F81208A4AC00AD01AE02AF03B6
:10253B009000A2120ABEE4FFFEFDFC900086E0F8BC
:10254B00A3E0F9A3E0FAA3E0FBC3120981701F908B
:10255B0000A2E0FCA3E0FDA3E0FEA3E02410FFE457
:10256B003EFEE43DFDE43CFC9000A2120ABEE47F7B
:10257B0002FEFDFC9000A2E0F8A3E0F9A3E0FAA3B1
:10258B00E0FB120819900086E0A3E0A3E0FAA3E0B9
:10259B0090502775F008120B1FEA75F008A42583DD
:1025AB00F583E493FB740193FA740293F98F828E93
:1025BB00831207B5FF9000A6E5F0F0A3EFF09000B3
:1025CB008E120ACA00000000900086E0A3E0A3E090
:1025DB00FEA3E090502675F008120B1FEE75F00865
:1025EB00A42583F583E493FFE4FCFDFE90008EE0CD
:1025FB00F8A3E0F9A3E0FAA3E0FBC31209814003BF
:10260B000227E3900086E0A3E0A3E0FEA3E0905056
:10261B002675F008120B1FEE75F008A42583F583C1
:10262B00E493FFE4FCFDFE90009EE0F8A3E0F9A329
:10263B00E0FAA3E0FB120819E47B02FAF9F812089E
:10264B0019900086E0A3E0A3E0FAA3E090502A756E
:10265B00F008120B1FEA75F008A42583F583E493A9
:10266B00FB740193FA7402932FF9EA3EFAEB3DFBEC
:10267B00C003C002C001E47F02FEFDFC90008EE0AF
:10268B00F8A3E0F9A3E0FAA3E0FB120819D001D0FC
:10269B0002D003E92FF9EA3EFAEB3DFB120633FFBA
:1026AB00E4FCFDFE900096120ABE900086E0A3E0CB
:1026BB00A3E0FEA3E090502675F008120B1FEE75F9
:1026CB00F008A42583F583E493FFE4FCFDFE900062
:1026DB009EE0F8A3E0F9A3E0FAA3E0FB120819E4EB
:1026EB007B02FAF9F8120819900086E0A3E0A3E048
:1026FB00FAA3E090502A75F008120B1FEA75F00848
:10270B00A42583F583E493FB740193FA7402932F4E
:10271B00F9EA3EFAEB3DFBC003C002C001E47F02C5
:10272B00FEFDFC90008EE0F8A3E0F9A3E0FAA3E035
:10273B00FB120819D001D002D003E92FF9EA3EFAB7
:10274B00EB3DFB90000112064CFFE4FCFDFE9000FC
:10275B009A120ABE90008EE0A3E0A3E0A3E0FF7EF6
:10276B00007401A807088005C333CE33CED8F9FF18
:10277B009000A6E05EFEA3E05F4E601B900096E02B
:10278B00A3E0A3E0A3E0FFA3E0A3E0A3E0A3E0FDAD
:10279B007B011200038019900096E0A3E0A3E0A355
:1027AB00E0FFA3E0A3E0A3E0A3E0FDE4FB12000342
:1027BB0090008EE0FCA3E0FDA3E0FEA3E0FFE4FAB3
:1027CB00F9F8EF2401FFEA3EFEE93DFDE83CFC9001
:1027DB00008E120ABE0225D3900092E0FCA3E0FD0E
:1027EB00A3E0FEA3E0FFE47B0AFAF9F812081990C4
:1027FB000092120ABE0224C922EE7016EF24FE606C
:10280B000B04700EE4F59153E1EF8006E4F5914370
:10281B00E110EDB411004003022AD790282DF828BF
:10282B0028730228600228860228AF0228D80229C2
:10283B000102292A02295302297C022AA5022ABD58
:10284B000229A50229D00229FB022A26022A5102BB
:10285B002A7B022ACB75910253F40F43F410759126
:10286B000143B52053B6DF759101E4F5CE43CE019C
:10287B00F59153A1F043E101022AD775910253F46C
:10288B00F043F40175910143B51053B6EF75910107
:10289B00E4F5CE43CE02F59153A1F043A10143E100
:1028AB0001022AD775910253F30F43F3107591016F
:1028BB0043B50853B6F7759101E4F5CE43CE04F555
:1028CB009153A1F043A10243E101022AD775910272
:1028DB0053F3F043F30175910143B50453B6FB7504
:1028EB009101E4F5CE43CE08F59153A1F043A1033A
:1028FB0043E101022AD775910253F20F43F210758F
:10290B00910143B50253B6FD759101E4F5CE43CE6B
:10291B0010F59153A1F043A10443E101022AD775AD
:10292B00910253F2F043F20175910143B50153B695
:10293B00FE759101E4F5CE43CE20F59153A1F04302
:10294B00A10543E101022AD775910253F60F43F615
:10295B001075910143C20253C3FD759101E4F5CE8D
:10296B0043CE40F59153A1F043A10643E101022A66
:10297B00D775910253F7F043F70175910143C204E8
:10298B0053C3FB759101E4F5CE43CE80F59153A172
:10299B00F043A10743E101022AD775910253F6F0E8
:1029AB0043F60175910143C20153C3FEE4F59175E2
:1029BB009102F5CE43CE04F59153A13043A10A43C6
:1029CB00E101022AD775910253950F43951075912A
:1029DB000243848053857FE4F591759102F5CE43D4
:1029EB00CE08F59153A13043A10B43E101022AD745
:1029FB007591025395F043950175910243844053B1
:102A0B0085BFE4F591759102F5CE43CE10F5915348
:102A1B00A13043A10C43E101022AD77591025394D3
:102A2B000F4394107591024384205385DFE4F59195
:102A3B00759102F5CE43CE20F59153A13043A10DF4
:102A4B0043E101022AD77591025394F04394017527
:102A5B0091024384105385EFE4F591759102F5CE05
:102A6B0043CE40F59153A13043A10E43E101805C6D
:102A7B0075910253F50F43F51075910143B58053D2
:102A8B00B67FE4F591759102F5CE43CE80F5915367
:102A9B00A13043A10F43E1018032E4F59153E1FEF4
:102AAB00F59143A140F59153A1F043A10843E101F6
:102ABB00801AE4F59153A1F043A10943E101800C85
:102ACB00E4F59153A1F043A10A43E101E4F59143ED
:102ADB00E1012290009A120ABE124FA39000A61297
:102AEB000B4B124EFD9000141209D8EF2480FFE41B
:102AFB003EFEE43DFDE43CFC9000A2120ABEE490D5
:102B0B00009FF09002EBE0FF90009FE0C39F40031B
:102B1B00022D9AE0FF7E007401A807088005C333DD
:102B2B00CE33CED8F9FFEE3395E0FDFC90009A1230
:102B3B000A62120936EC4D4E4F7003022D91900034
:102B4B00A6120B2B90009FE075F004A4F58285F084
:102B5B008312064C9000A9F0E024E29000A0F090C4
:102B6B0000A2120A46EF2403FDE43EFC90009FE016
:102B7B0075F004A42DFFE5F03C8F82F583E4939070
:102B8B0000AAF0E0FF9000A9E0C39F9000ABF0E03B
:102B9B00FF9000A0E0C39F50089000ABE09000A016
:102BAB00F09000A2120A46AD07AC0690009FE075AC
:102BBB00F004A42DFFE5F03C8F82F583E4932414FD
:102BCB009000A1F090009FE02436F582E43401F5EB
:102BDB0083E03395E0C3648094804003022CA29081
:102BEB00009EE06401704A9000A2120A46AD07AC49
:102BFB000690009FE075F004A42DFFE5F03C8F825A
:102C0B00F583E493FF90009FE02436F582E43401D2
:102C1B00F583E0FEEF2EFF9000A6120B2B90009F8A
:102C2B00E075F004A4F58285F083EF1206E0022D27
:102C3B005A90009FE02436F582E43401F583E0FFDF
:102C4B009000A6120B2B90009FE075F004A4F58268
:102C5B0085F083EF12069B9000A6120B2B90009F22
:102C6B00E075F004A4F58285F08312064CFF90000A
:102C7B00A0E0FEEFC39E4003022D5AE0FF9000A69A
:102C8B00120B2B90009FE075F004A4F58285F08366
:102C9B00EF1206E0022D5A90009EE06401704990FD
:102CAB0000A2120A46AD07AC0690009FE075F00437
:102CBB00A42DFFE5F03C8F82F583E493FF90009FFA
:102CCB00E02436F582E43401F583E0FEEF2EFF902D
:102CDB0000A6120B2B90009FE075F004A4F58285E3
:102CEB00F083EF1206E0806790009FE02436F582B8
:102CFB00E43401F583E0FF3395E0FED3EF9407EE68
:102D0B0064809480401A9000A6120B2B90009FE0D9
:102D1B0075F004A4F58285F083740512069B802F51
:102D2B0090009FE02436F582E43401F583E0FF3315
:102D3B0095E0FEEF4E60189000A6120B2B90009FB3
:102D4B00E075F004A4F58285F083740112069B9064
:102D5B0000A6120B2B90009FE075F004A4F5828562
:102D6B00F08312064CD394DC74809480401890004E
:102D7B00A6120B2B90009FE075F004A4F58285F052
:102D8B008374DC1206E090009FE004F0022B0E220D
:102D9B00900082120B4BE4900087F090008974FF37
:102DAB00F0E490008BF0124EFD9000141209D8EF56
:102DBB002480FFE43EFEE43DFDE43CFC90009012D9
:102DCB000ABE900020E004F0900001120B2B900043
:102DDB00101209D8900001120B2B90000C120A8EC6
:102DEB00120943900001120B2B120A6E1209439029
:102DFB00008C120ABE900069E06401702F9000866F
:102E0B00F0900086E0C39403748094805017900078
:102E1B008C120A46900082120B2B12386B90008694
:102E2B00E004F080DCE4900069F0FF22E490008580
:102E3B00F09002EBE0FF900085E0C39F5068E47FC9
:102E4B0001FEFDFCE0F9F81209A590008C120A6254
:102E5B00120936EC4D4E4F6045900085E0FF7B012B
:102E6B007A007988122119EF3395E0FEEF64014E59
:102E7B007014900085E0FFFEF8088002C333D8FC85
:102E8B004480900087F0900088E0FF900082120B46
:102E9B002B900085E0F582758300EF1206E0900021
:102EAB0085E004F0808B9002ECE0640170387B01CC
:102EBB007A027953C002C0019002EBE0FD7A0079EF
:102ECB0089900099120B4B7A000990009C120B4BC6
:102EDB00D001D002123E99900087E06006900089E5
:102EEB00E0FF227FFF22900087E0700302300D7B12
:102EFB00017A027953C002C0019002EBE0FD7A0027
:102F0B007989900099120B4B7A000990009C120B57
:102F1B004BD001D002123E99900090120A46EF243A
:102F2B0003FDE43EFC900089E075F004A42DFFE561
:102F3B00F03C8F82F583E493900094F0E0FF9000D7
:102F4B0089E02453F582E43402F583E0FEC3EF6499
:102F5B0080F8EE648098401E900089E02453F5823F
:102F6B00E43402F583E0FF3395E0FED3EF9400EEFB
:102F7B00648094805033900060E06401701F900077
:102F8B0000E0FF124D2CEF6402700A900000E090FD
:102F9B00008BF0807890008B74FFF08070E49000D1
:102FAB0000F0E090008BF08064900060E0640170B2
:102FBB0033900089E0FF124D2CEF6402701E9000DD
:102FCB0089E0FF900000E06F6008900089E09000BE
:102FDB0000F0900000E090008BF0803190008B743B
:102FEB00FFF08029900089E0FF900000E06F6008FF
:102FFB00900089E0900000F0900000E090008BF0D2
:10300B00800BE4900000F090008B74FFF090006157
:10301B00E064017011A3E0FF900020E0D39F400615
:10302B00E4F0FF124A2D90008BE0FF2290008212F9
:10303B000ABE7F031248B890008A120ABE7591022D
:10304B00900086120ACA00000000E47F12FEFDFC0D
:10305B00900086E0F8A3E0F9A3E0FAA3E0FBC3122B
:10306B0009814003023291900086E0A3E0A3E0A324
:10307B00E0F9E47F01FEFDFCA8011209A590008296
:10308B00E0F8A3E0F9A3E0FAA3E05FFFEA5EFEE954
:10309B005DFDE85CFC4D4E4F7003023269A3E0FC12
:1030AB00A3E0FDA3E0FEA3E0FF120B7A31270000A3
:1030BB000000316800000001317300000002317E16
:1030CB000000000331890000000431B1000000054D
:1030DB0031BC0000000631C70000000731D20000F0
:1030EB00000831DD0000000931E80000000A31F270
:1030FB000000000B31FC0000000C32060000000D3C
:10310B0032100000000E321A0000000F32350000A2
:10311B00001032500000001100003269E5E354F05A
:10312B00440AF5E3E47F01FEFDFC90008AE0F8A37E
:10313B00E0F9A3E0FAA3E0FBC312098160030232BA
:10314B006975910253E3F043E30E75910153BDBFD3
:10315B0053BEBF908001E04408F0023269E5F95498
:10316B00F0440AF5F9023269E5F9540F44A0F5F978
:10317B00023269E5FA54F0440AF5FA023269E5FACB
:10318B00540F44A0F5FAE47F10FEFDFC90008AE09A
:10319B00F8A3E0F9A3E0FAA3E0FBC31209816003F3
:1031AB00023269023269E5FB54F0440AF5FB023244
:1031BB0069E5FB540F44A0F5FB023269E5EA54F0D4
:1031CB00440AF5EA023269E593540F44A0F59302E1
:1031DB003269E59354F0440AF593023269E592544F
:1031EB000F44A0F5928077E59254F0440AF5928053
:1031FB006DE5ED54F0440AF5ED8063E5EC540F44B6
:10320B00A0F5EC8059E5EC54F0440AF5EC804F75D1
:10321B00910253F7F043F70E75910153C2FB53C361
:10322B00FB908001E04408F0803475910253EEF07E
:10323B0043EE0E75910153B9BF53BABF908001E0B5
:10324B004408F0801975910253E30F43E3D0759155
:10325B000153BD7F53BE7F908001E04408F0900086
:10326B0086E0FCA3E0FDA3E0FEA3E0FFE4FAF9F89F
:10327B00EF2401FFEA3EFEE93DFDE83CFC900086B1
:10328B00120ABE023055E4F59122124C8A7B017A68
:10329B00007904900001120B4B900001120B2B9044
:1032AB00000512064CF4601D900001120B2B9000D0
:1032BB000A12064CFF900001120B2B900005120610
:1032CB004CFD12451E900001120B2B9000041206B0
:1032DB004CFF7E007401A807088005C333CE33CEA4
:1032EB00D8F9FF124DEA900082120ACA00000000C2
:1032FB009002EBE0FFE4FCFDFE900082120A62C339
:10330B0012098140030233A6900001120B2B90008F
:10331B000512064CFFE4FCFDFE900082120A62C30C
:10332B00120981605A900082120A467E007401A82D
:10333B0007088005C333CE33CED8F9FFEE3395E0C3
:10334B00FDFC12493D900082120A467E007401A8D2
:10335B0007088005C333CE33CED8F9FFEE3395E0A3
:10336B00FDFCC004C005C006C0079000BA120ACA13
:10337B0000000000D007D006D005D00412423B90CD
:10338B000082120A46EF2401FFE43EFEE43DFDE419
:10339B003CFC900082120ABE0232FB900001120B21
:1033AB002B90000A12064CFFE4FCFDFE124D879099
:1033BB000001120B2B90000612064C75F010A4FFA7
:1033CB00AEF0EE3395E0FDFCC004C005C006C007AF
:1033DB00900001120B2B90000712064CFFE4FCFD32
:1033EB00FE90008A120ABE900001120B2B90000B6C
:1033FB0012064C75F010A4FFAEF0EE3395E0FDFC19
:10340B0090008E120ABED007D006D005D004124B06
:10341B0069E49002ECF0A3F02290007074FFF0A32B
:10342B00F0C20090EE80E4937FFF124E097BFF7A8F
:10343B004F79D0121471124F73124D5B7B017A00CE
:10344B00796C121889900070EFF090007274FFF095
:10345B00900070E03395E0C364809480500280FE4E
:10346B0090006CE0FCA3E0FDA3E0FEA3E0FF1230B4
:10347B0037124C097BFF7A4F79957F017E007D00D7
:10348B007C00123D75124CF97F01124EA9124F5957
:10349B007F04124F20124F4C123295E49004AFF080
:1034AB009002F0F0D2AF900556E064016003023554
:1034BB0047F09004AFE070069002EF74FFF07B01D1
:1034CB007A007973122D9B900070EFF0E0FF33952B
:1034DB00E0FEEFF47002EEF46034C2019002EFE014
:1034EB00FE3395E0900082F0A3CEF0124F3F900098
:1034FB0070E0FF9002EFE06F6011900070E09002BF
:10350B00EFF0900070900072F080370080B0900068
:10351B008A120ACA000000007F877E017D007C00B2
:10352B00124830900070E09002EFF0D201E0FE33D1
:10353B0095E0900082F0A3CEF0124F3F9000727492
:10354B00FFF0900072E0FF3395E0FEEFF47002EEB7
:10355B00F4600A9004AF7401F09002F0F09002F066
:10356B00E014600C0460030234B1123F8B0234B1DF
:10357B00900072E060030234B13000051245CB803D
:10358B0003123F8B9004AEE004F0A200B392000252
:10359B0034B10234B10234B122C0E0C0F0C083C0F8
:1035AB0082C0D075D000C000C001C002C003C004EF
:1035BB00C005C006C00753C87F9000F5E0FCA3E030
:1035CB00FDA3E0FEA3E02401FFE43EFEE43DFDE4A9
:1035DB003CFC9000F5120ABE74FFFFFEFD7C0F90C1
:1035EB0000F5E0F8A3E0F9A3E0FAA3E0FBC31209AE
:1035FB0081400A9000F5120ACA000000009000F901
:10360B00E070030236F790006BE4F090006BE0C3C0
:10361B0094047480948040030236F7E075F00CA498
:10362B0024C5F582E43400F583E070030236EE9096
:10363B00006BE075F00CA424CAF582E43400F5832A
:10364B00E0FCA3E0FDA3E0FEA3E0FF74FFEF24FF8B
:10365B00FFEE34FFFEED34FFFDEC34FFFC90006B0E
:10366B00E075F00CA424CAF582E43400F583120A49
:10367B00BE90006BE075F00CA424CAF582E4340014
:10368B00F583E0FCA3E0FDA3E0FEA3E0FFE4FBFA7F
:10369B00F9F8C3120981704B90006BE075F00CA424
:1036AB0024CEF582E43400F583E0A3E0FAA3E0F93D
:1036BB00120BB490006BE075F00CA424C6F582E4F9
:1036CB003400F583E0FCA3E0FDA3E0FEA3E0FF9054
:1036DB00006BE075F00CA424CAF582E43400F5838A
:1036EB00120ABE90006BE004F0023616D007D0062B
:1036FB00D005D004D003D002D001D000D0D0D082DE
:10370B00D083D0F0D0E0329000B4EFF0A3EDF0A373
:10371B00EBF0E0A3F09000B4E0FFE4FCFDFEC0048E
:10372B00C005C006C007A3E0FFE49000BD120ABEAF
:10373B00D007D006D005D004124E92124F8B9000BA
:10374B00B4E0FF7E007401A807088005C333CE33B5
:10375B00CED8F9FF124E7A9000B6E09000B8F090F8
:10376B0000B6A3F09000B7E070030238559000B498
:10377B00E0FFE4FCFDFEC004C005C006C0079000DE
:10378B00B7E0FFE49000BD120ABED007D006D0050B
:10379B00D004124E279000B4E0FFE4FCFDFE12446F
:1037AB006BD3EF94327480948050739000B8E0FF29
:1037BB009000B7E0C39F4031A3E09000B7E09FFFBC
:1037CB00E49400FED3EF9401EE64809480407BE0A0
:1037DB00FDA3E0FF9000B7E09FFFE49400C313EF5D
:1037EB0013FFC3ED9FF002376F9000B7E0FFA3E02C
:1037FB00C39FFFE49400FED3EF9401EE64809480AA
:10380B0040489000B7E0FDFFA3E09FFFE49400C3A6
:10381B0013EF13FFC3ED9F9000B7F002376F9000CB
:10382B00B7E0A3F09000B7FFC374FF9FFFE49400D1
:10383B00C313EF13FFE02FF0E0C394FE748094806A
:10384B00500302376F800302376F9000B6E0FFA37F
:10385B00E0C39FFFD394787480948040027F7822DA
:10386B00900095120ABE900099120B4BE490009EAB
:10387B00F090009DF090009DE0C3940574809480BF
:10388B0040030239BEE490009CF09002EBE0FF9005
:10389B00009CE0C39F40030239B5E47F01FEFDFCB1
:1038AB00E0F9F81209A5900095120A62120936EC9C
:1038BB004D4E4F70030239AC90009CE025E025E0A3
:1038CB002424F582E43400F583E0C394FF748094E0
:1038DB008040030239AC90009CE0FF7B017A0079B9
:1038EB009F122119900021E0FF90009FE0FD33957E
:1038FB00E0FCD3ED9F7480F86C98403C90009CE00A
:10390B0025E025E02424F582E43400F583E014F06F
:10391B0090009CE0FF7B017A00799F1221199000A7
:10392B009FE0FF900099120B2B90009CE0F58275A5
:10393B008300EF1206E080AC90009FE0FF3395E030
:10394B00FEC3EF94FBEE6480947F503C90009CE0B0
:10395B0025E025E02424F582E43400F583E004F02F
:10396B0090009CE0FF7B017A00799F122119900057
:10397B009FE0FF900099120B2B90009CE0F5827555
:10398B008300EF1206E080B090009FE0FF90009C58
:10399B00E025E025E02423F582E43400F583E02FD5
:1039AB00F090009CE004F002389590009DE004F04C
:1039BB000238802275910253F40F43F45075910233
:1039CB0053F4F043F40575910253F30F43F3507521
:1039DB00910253F3F043F30575910253ED0F43ED51
:1039EB005075910253EDF043ED0575910253EC0FB9
:1039FB0043EC5075910253ECF043EC057591025377
:103A0B00EB0F43EB2075910253EBF043EB027591F7
:103A1B000253930F4393207591025393F0439302F8
:103A2B0075910253920F4392207591025392F0437A
:103A3B00920275910253FFF043FF0275910253FFFF
:103A4B000F43FF2075910253F1F043F10275910280
:103A5B0053F10F43F12075910253EEF043EE0275D3
:103A6B00910253EE0F43EE2075910253F70F43F77C
:103A7B002075910253F7F043F70275910253950F9E
:103A8B004395207591025395F0439502759102531E
:103A9B00940F4394207591025394F04394027591C3
:103AAB000253F50F43F52075910253F5F043F502E0
:103ABB0075910253F20F43F22075910253F2F043CA
:103ACB00F20275910253E90F43E92075910253E914
:103ADB00F043E90275910253FC0F43FC20759102F0
:103AEB0053FCF043FC0275910253FD0F43FD3075FF
:103AFB00910253FEF043FE03229000B4EFF0A3EDCE
:103B0B00F0124EFD9000141209D8EF2480FFE43E12
:103B1B00FEE43DFDE43CFCEF2403FDE43EFC9000A1
:103B2B00B4E075F004A42DFFE5F03C8F82F583E43F
:103B3B0093FF9000B5E0FED3EF6480F8EE648098BD
:103B4B005003023BE19000B4E025E02418F582E439
:103B5B003401F583E004F0900067E02401FFE433C7
:103B6B00FE9000B4E025E02418F582E43401F583DF
:103B7B00E0FD3395E0FCD3ED9FEE6480F8EC6480C0
:103B8B0098402A900068E0FF9000B4E025E02418EC
:103B9B00F582E43401F583EFF09000B4E025E024E6
:103BAB0019F582E43401F5837402F0FF229000B41E
:103BBB00E025E02419F582E43401F583E06402701A
:103BCB00037F02229000B4E025E02419F582E4344F
:103BDB0001F583E0FF229000B4E025E02418F58284
:103BEB00E43401F583E014F09000B4E025E02418F0
:103BFB00F582E43401F583E03395E0C3648094806F
:103C0B0050249000B4E025E02418F582E43401F54B
:103C1B0083E4F09000B4E025E02419F582E434014C
:103C2B00F583E4F0FF229000B4E025E02419F5823F
:103C3B00E43401F583E0FF227F03124A9F7D087F66
:103C4B00017E001228047D077F07124E5FE4F59179
:103C5B0053A17FF59143A140E5A130E7FBAFC3EF43
:103C6B0075F010A4ADC27C002DFEEC35F0900086F3
:103C7B00F0A3CEF01249B6AC06AD07E41202D1C0E8
:103C8B0004C005C006C007900086E0FCA3E0FDE47D
:103C9B001202D1A804A905AA06AB07D007D006D0FB
:103CAB0005D00412022FE4FBFA7940784512012665
:103CBB00900088120ABE7D077F03124E5F7D097F3D
:103CCB00017E00122804E4F59153A17FF59143A1E5
:103CDB0040E5A130E7FBAFC3EF75F010A4ADC27C9C
:103CEB00002DFFEC35F0FEAD07FCE41202D1900085
:103CFB0088E0F8A3E0F9A3E0FAA3E0FB120126A801
:103D0B0004A905AA06AB077F007EC07D287C4A125A
:103D1B0000317B007A7079F0784512022FE4FBFAC0
:103D2B0079C8784112003590008C120ABE90008C35
:103D3B00E0FCA3E0FDA3E0FEA3E0FF12030A124F99
:103D4B007FAC06AD07EC1202D190008C120ABE12AA
:103D5B004FB8124F6690008CE0FCA3E0FDA3E0FE91
:103D6B00A3E0FF12030A2280FE22900082120ABEF9
:103D7B00900086EBF0A3EAF0A3E9F0E490008BF05F
:103D8B00A3F0900089F0A3F0C390008AE094049014
:103D9B000089E0648094804003023E82E0FEA3E051
:103DAB009000C575F00C120B1FEE75F00CA425835B
:103DBB00F583E06003023E71900089E0A3E0900080
:103DCB00C575F00C120B1FEE75F00CA42583F58353
:103DDB007401F0900082E0FCA3E0FDA3E0FEA3E001
:103DEB00FF900089E0FAA3E09000C675F00C120B6F
:103DFB001FEA75F00CA42583F583120ABE9000828E
:103E0B00E0FCA3E0FDA3E0FEA3E0FF900089E0FA55
:103E1B00A3E09000CA75F00C120B1FEA75F00CA40E
:103E2B002583F583120ABE900086E0FBA3E0FAA37C
:103E3B00E0F9A3E0FEA3E09000CE75F00C120B1F8F
:103E4B00EE75F00CA42583F583EBF0A3EAF0A3E960
:103E5B00F0900089E0FFA3E0A3CFF0A3EFF0900078
:103E6B00F9E004F0801190008AE004F070069000F5
:103E7B0089E004F0023D93900089E07004A3E064B4
:103E8B000470037FFF2290008BE0A3E0FF229000E1
:103E9B0095120B4B900098EDF0E490009FF0A3F07F
:103EAB00A3F09000A3F0A3F09000A2F0900098E094
:103EBB00FF9000A2E0C39F4003023F6C900095125D
:103ECB000B2B9000A2E0F58275830012064CFF339A
:103EDB0095E0FED39000A0E09FEE6480F890009FE9
:103EEB00E06480985030E0A3E0A3F0900095120BB3
:103EFB002B9000A2E0F58275830012064CFE3395E1
:103F0B00E090009FF0A3CEF09000A3E0A3F0900010
:103F1B00A2E0A3F08042900095120B2B9000A2E040
:103F2B00F58275830012064CFF3395E0FE9000A1DD
:103F3B00E0FDD3EF9D7480F86E98401C90009512B5
:103F4B000B2B9000A2E0F58275830012064C9000BB
:103F5B00A1F0A3E09000A4F09000A2E004F0023ED8
:103F6B00B79000A3E0FF900099120B2BEF1206CE37
:103F7B009000A4E0FF90009C120B2BEF1206CE22B8
:103F8B00E4FB7D1BFF12000390008A120ACA00009B
:103F9B0000017F677E007D007C0012483090008A14
:103FAB00120ACA000000017F677E017D007C0012AF
:103FBB00483090008A120ACA000000017F637E001D
:103FCB007D007C0012483090008A120ACA00000063
:103FDB00017F617E007D007C0012483090008A12C8
:103FEB000ACA000000017F607E007D007C00124841
:103FFB00307BFF7A4F79F87F007E007D007C0012CA
:10400B001CDC9004AEE0FFE4FCFDFE90008A120A7B
:10401B00BE7F017E007D007C0012248F123C4390FA
:10402B000082120ABE900082E0FCA3E0FDA3E0FE3A
:10403B00A3E0FF90008A120ABE7F027E007D007C07
:10404B000012248F90008A120ACA000000017FA779
:10405B007E007D007C0012483090008A120ACA0054
:10406B00030D427F037E007D007C0012248F229083
:10407B00009AEFF0E4A3F090009D120ACA00000032
:10408B0000124EFD9000141209D8EF2480FFE43E7D
:10409B00FEE43DFDE43CFC9000A1120ABE90009AA8
:1040AB00E064017014900001120B2B90000C1209AC
:1040BB00D890009D120ABE801A90009AE06402709C
:1040CB0012900001120B2B9000101209D890009D3A
:1040DB00120ABEE490009CF09002EBE0FF90009C73
:1040EB00E0C39F5067E47F01FEFDFCE0F9F8120985
:1040FB00A5A3120A62120936EC4D4E4F6046900092
:10410B00A1120A46EF2403FDE43EFC90009CE075EF
:10411B00F004A42DFFE5F03C8F82F583E493FF9030
:10412B00009CE02453F582E43402F583E0FD3395E3
:10413B00E0FCEFFBD3ED9B7480F86C98400690008D
:10414B009B7401F090009CE004F0808C90009BE04D
:10415B00FF229000B4EFF0A3EDF0A3EBF0E0A3F09F
:10416B009000B4E0FFE4FCFDFEC004C005C006C037
:10417B0007A3E0FFE49000BD120ABED007D006D023
:10418B0005D004124E929000B6E0A3F09000B7E079
:10419B006062124F8B9000B4E0FF7E007401A807A1
:1041AB00088005C333CE33CED8F9FF124E7A900078
:1041BB00B4E0FFE4FCFDFEC004C005C006C00790E0
:1041CB0000B7E0FFE49000BD120ABED007D006D0C6
:1041DB0005D004124E279000B4E0FFE4FCFDFE1264
:1041EB00446BC3EF94327480948050089000B7E016
:1041FB0014F080989000B7E0FF9000B6E0C39FFFEB
:10420B00E49400FED3EF9478EE64809480400890A1
:10421B0000B87478F0800F9000B7E0FF9000B6E024
:10422B00C39F9000B8F09000B8E0F404F0E0FF22D8
:10423B009000B6120ABE7B017A8079309000C212D0
:10424B000B4B9000BE120ACA00000000E47F0EFE6A
:10425B00FDFC9000BE120A62D31209814003024298
:10426B00F89000BE120A46A907E47F01FEFDFCA8E8
:10427B00011209A59000B6120A62120936EC4D4ED6
:10428B004F60529000BE120A469000C2120B2B8F49
:10429B00828E8312064CFFE4FCFDFEEF54F3FFE429
:1042AB00C004C005C006C0079000BA120A467802C7
:1042BB001209A5D003D002D001D000120943C007C8
:1042CB009000BE120A469000C2120B2B8F828E8377
:1042DB00D0E01206E09000BE120A46E47B01FAF928
:1042EB00F812080C9000BE120ABE02425722EF14BD
:1042FB00600B24FC505D240560030243B3E4F5918D
:10430B00A2AF920AC2AF75C7AA75C755439F01A248
:10431B000A92AF75A643F5A775AF04F591A2AF92BC
:10432B000AC2AF75C7AA75C75543A401A20A92AFBB
:10433B00AEAE75910175C7AA75C7558EAAF591A238
:10434B00AF920AC2AF75C7AA75C755539FFEA20A93
:10435B0092AF22E4F591A2AF920AC2AF75C7AA75CC
:10436B00C755439F01A20A92AF75A646F5A775AF35
:10437B0004F591A2AF920AC2AF75C7AA75C7554390
:10438B00A401A20A92AFAEAE75910175C7AA75C70B
:10439B00558EAAF591A2AF920AC2AF75C7AA75C77F
:1043AB0055539FFEA20A92AF22AA0775F004EA901A
:1043BB000023120B1FE09000B4F075F004EA90009C
:1043CB0026120B1FE09000B5F0ED700D74362AF538
:1043DB0082E43401F583E4F022EB3395E0C364808F
:1043EB009480503074362AF582E43401F583E0FF73
:1043FB003395E0FEEBFD3395E0FCEF2DFFEE3CFE3D
:10440B007C007D0212076974362AF582E43401F5CB
:10441B0083EFF0229000B5E0C36480F8EB648098E2
:10442B00503174362AF582E43401F583E0FF33957D
:10443B00E0FEAD03ED3395E0FCEF2DFFEE3CFE7C93
:10444B00007D0212076974362AF582E43401F58384
:10445B00EFF02274362AF582E43401F583E4F0227E
:10446B009000B9120ABEE47F02FEFDFC120B7A44E7
:10447B008A00000002449301FFFF02000044A59054
:10448B008008E054FDF0801F908008E054F1F0E4C8
:10449B00908009F090800AF0800D908009E0FFE495
:1044AB00EF54FDFFE4EFF0908000E04401F09080CA
:1044BB0008E05402FFE4FCFDFEEF60047F01800482
:1044CB007E007F00EF4E60E6E47F02FEFDFC120BE8
:1044DB007A44EC0000000244F501FFFF02000045A6
:1044EB0007908008E054FDF0801F908008E054F1A5
:1044FB00F0E4908009F090800AF0800D908009E044
:10450B00FFE4EF54FDFFE4EFF09000B9120A4612FE
:10451B004EBF229000B4EFF0A3EDF09000B4E0C3D7
:10452B009402748094804039A3E0FF7E007401A84C
:10453B0007088005C333CE33CED8F9FFEE3395E0B1
:10454B00FDFCC004C005C006C0079000BA120ACA21
:10455B0000000003D007D006D005D00412423B80E8
:10456B003F9000B4E064017037A3E0FF7E0074015C
:10457B00A807088005C333CE33CED8F9FFEE3395A9
:10458B00E0FDFCC004C005C006C0079000BA120ACB
:10459B00CA00000001D007D006D005D00412423B60
:1045AB009000B5E0FF7E007401A807088005C333B7
:1045BB00CE33CED8F9FFEE3395E0FDFC12493D2208
:1045CB0090008A120ACA000000017F677E007D00FE
:1045DB007C0012483090008A120ACA000000017F4A
:1045EB00677E017D007C0012483090008A120ACA57
:1045FB00000000017F637E007D007C00124830903C
:10460B00008A120ACA000000017F617E007D007CD7
:10461B000012483090008A120ACA000000017F6025
:10462B007E007D007C001248307BFF7A4F79FF7F44
:10463B00007E007D007C00121CDC9004AEE0FFE4E9
:10464B00FCFDFE90008A120ABE7F017E007D007C7D
:10465B000012248F90008A120ACA00030D427F03B6
:10466B007E007D007C0012248F22787FE4F6D8FD3B
:10467B009000007FFF7E10E4F0A3DFFCDEFA758173
:10468B00210246CA023424E493A3F8E493A3400323
:10469B00F68001F208DFF48029E493A3F854072491
:1046AB000CC8C333C4540F4420C8834004F4568051
:1046BB000146F6DFE4800B010204081020408090D5
:1046CB000C46E47E019360BCA3FF543F30E50954D4
:1046DB001FFEE493A360010ECF54C025E060A840F9
:1046EB00B8E493A3FAE493A3F8E493A3C8C582C8F0
:1046FB00CAC583CAF0A3C8C582C8CAC583CADFE9C5
:10470B00DEE780BE9000B5120ABE7B017A8079305D
:10471B009000BD120B4B9000B9120ACA00000000AA
:10472B00E47F0EFEFDFC9000B9120A62D3120981E0
:10473B0050649000B9120A467E007401A8070880E5
:10474B0005C333CE33CED8F9FFEE3395E0FDFC90A5
:10475B0000B5120A62120936EC4D4E4F601D9000E7
:10476B00B9120A469000BD120B2BE92FF9EA3EFA5B
:10477B00EB3DFB12063354EF1206CE9000B9120A32
:10478B0046EF2401FFE43EFEE43DFDE43CFC9000DB
:10479B00B9120ABE808A229000A1120ACA00000038
:1047AB0000E47F807EEEFDFC9000A1120A62D31222
:1047BB00096B50509000A1120A468F828E83120A09
:1047CB005290009D120ABE7F627E4B7D547C4E90B0
:1047DB00009D120A62C312096B700E9000A1120A9F
:1047EB00469000A5120ABE801B9000A1120A46EF4C
:1047FB002480FFE43EFEE43DFDE43CFC9000A1126E
:10480B000ABE809D7F627E4B7D547C4E90009D1234
:10481B000A62C312096B70079000A5120A4622E4C4
:10482B00FFFEFDFC22900086120ABE900086E0FC83
:10483B00A3E0FDA3E0FEA3E0540FFFE4FEFDFC901C
:10484B00008E120ABE900086E0FCA3E0FDA3E0FE02
:10485B00A3E054F0FFEE540FFEE4FDFC78041209C4
:10486B0092900092120ABE90008AE0FCA3E0FDA396
:10487B00E0FEA3E0FFEC4D4E4F6018A3E0A3E0A3D6
:10488B00E0A3E0FFA3E0A3E0A3E0A3E0FD7B011224
:10489B0000032290008EE0A3E0A3E0A3E0FFA3E0DF
:1048AB00A3E0A3E0A3E0FDE4FB12000322EF1460FE
:1048BB001714602114602B14604D2404706E90004B
:1048CB0001120B2B1209B822900001120B2B900036
:1048DB000C1209D822900001120B2B900010120918
:1048EB00D822900001120B2B90000512064CFF7E74
:1048FB00007401A807088005C333CE33CED8F9FF67
:10490B00EE3395E0FDFC22900001120B2B9000047E
:10491B0012064CFF7E007401A807088005C333CE36
:10492B0033CED8F9FFEE3395E0FDFC22E4FFFEFD1C
:10493B00FC229000B6120ABE7B017A80793090007F
:10494B00BC120B4BE49000BAF0A3F0D39000BBE089
:10495B00940E9000BAE094005050E0A3E0FF7E006C
:10496B007401A807088005C333CE33CED8F9FFEE08
:10497B003395E0FDFC9000B6120A62120936EC4D3D
:10498B004E4F601A9000BC120B2B9000BAE0FEA3A6
:10499B00E029F9EA3EFA12063344101206CE9000D3
:1049AB00BAE475F00112079F80A122E4F591A2AF42
:1049BB00920AC2AF75C7AA75C755439F01A20A9247
:1049CB00AF75AF0475A60DF5A7F591A2AF920AC20C
:1049DB00AF75C7AA75C75543A401A20A92AFE5AE3E
:1049EB00540FFD75A60CE4F591A2AF920AC2AF75F8
:1049FB00C7AA75C75543A401A20A92AFAFAEEF7514
:104A0B00F010A47C002DFFEC35F0FEE4F591A2AF85
:104A1B00920AC2AF75C7AA75C755539FFEA20A92D9
:104A2B00AF22900095EFF0900001120B2B1209B8FA
:104A3B00900096120ABE900069E070577F011240F9
:104A4B007AEF701B900096120A46900001120B2B06
:104A5B0090000C120A8E120943900096120ABE7F28
:104A6B000212407AEF701B900096120A46900001DA
:104A7B00120B2B900010120A8E1209439000961203
:104A8B000ABE900096120A46900095E090009EF0A8
:104A9B00122ADE22AD071242F9759101AF05EFC460
:104AAB0054F04403F50F75C7AA75C755850FA9E4D4
:104ABB00F509C3E5099405748094805017E4F50853
:104ACB00C3E50894E574809480500500050880F0D8
:104ADB00050980DEE4F50BC3E50B94057480948027
:104AEB005017E4F50AC3E50A94E5748094805005E9
:104AFB0000050A80F0050B80DE75C7AA75C75553F4
:104B0B00A9FD229000B4EFF0E0FF7E007401A8072E
:104B1B00088005C333CE33CED8F9FFEE3395E0FDD5
:104B2B00FCC004C005C006C0079000BA120ACA0038
:104B3B00000000D007D006D005D00412423B9000F5
:104B4B00B4E0FF7E007401A807088005C333CE33A1
:104B5B00CED8F9FFEE3395E0FDFC12470F22900003
:104B6B0086120ABE908001E0FFE4FCFDFEEF548844
:104B7B00FFE4C004C005C006C00790008A120A46B5
:104B8B00900086120A62120943D003D002D001D0E2
:104B9B0000120943908001EFF0908000E0FFE4FCED
:104BAB00FDFEEF540FFFE490008E120A62120943D0
:104BBB00908000EFF022900082EFF0A3EDF0A3EBDA
:104BCB00F0124FB1E4FF124DCA900082E014600B5B
:104BDB0004700E75910353F9BF800675910343F969
:104BEB004053F9C0900085E042F953F9F3A3E0423A
:104BFB00F9900084E0F5F1900083E0F5FF22E4905A
:104C0B0000F9F0F59153C98F43C920F59153C8FEB4
:104C1B0043C98043C90875910175CB8A75CACFF515
:104C2B0091FEEEC39404748094805008AF06124C2E
:104C3B00C50E80EEE49000F9F0F591439B8043C8DC
:104C4B000422759103EF54C042FFEF24C0602C2463
:104C5B00C0602814600714600924417021AF058FD0
:104C6B00FD2243FF80759103A2AF920AC2AF75C7B5
:104C7B00AA75C75543F402A20A92AFE4F5FD229040
:104C8B008000E04404F07B017A807930900086123A
:104C9B000B4BE4FFFED3EF940EEE9400501B9000F1
:104CAB0086120B2BE92FF9EA3EFA12063354F01257
:104CBB0006CE0FEF70010E80DC22EFD394047480CC
:104CCB0094805029EF75F00CA424C5F582E43400D0
:104CDB00F583E064017016EF75F00CA424C5F58222
:104CEB00E43400F583E4F09000F9E014F02212397B
:104CFB00BF9000857430F0A37408F07B137D027FA6
:104D0B0001124BC17D017F01124DAA7D027F411221
:104D1B004C4DE4FDFF124F307F04124E43124FAA4D
:104D2B0022EF25E02418F582E43401F583E0FD330E
:104D3B0095E0FCD3ED9400EC64809480400FEF255C
:104D4B00E02419F582E43401F583E0FF227F002291
:104D5B00E4F591A2AF920AC2AF75C7AA75C75543C6
:104D6B009F01A20A92AFF591A2AF920AC2AF75C78B
:104D7B00AA75C75543A501A20A92AF2290008612CD
:104D8B000ABE908002E0FFE4FCFDFEEF54FCFFE462
:104D9B00900086120A62120943908002EFF022758E
:104DAB009103EF24FE600B04700E75910353FAEF21
:104DBB00800675910343FA1053FAF8ED42FA22EF8D
:104DCB0060047EFF8002E4FE759103E4FFEFC39461
:104DDB00207480948050078FFB8EFC0F80EF22D3C2
:104DEB00EF9480EE9400500B908005EFF0E49080F0
:104DFB0006F022EE908006F0E4908005F02275918B
:104E0B000253FA0F43FA8075910153B1F753B2F77E
:104E1B00E4F591124F10F591439802227B017A80B1
:104E2B00791074102FF974803EFAEB3DFB9000BDA6
:104E3B00120A46EF1206CE22EF601224FD600E140A
:104E4B0060042403700D75910343FA0822759103D6
:104E5B0053FAF722E4F59153E78FEF5407FFC4544D
:104E6B00F042E753E2F1ED5407FF25E042E222ADB9
:104E7B0007AC06EF6006908003E04FF0EC6007FF95
:104E8B00908004E04FF0227B017A807920EF29F9A2
:104E9B00EE3AFA9000BD120A46EF1206CE22EF242C
:104EAB00FE600A04700D75910343A30122759103F3
:104EBB0053A3FE227E007B017A80794074402FF948
:104ECB00EE3480FA120633FF22E4FFFE1206336043
:104EDB000C0FEF70010E09E970F20A80EF22EFB4AC
:104EEB000A0830F9FDC2F9759A0D30F9FDC2F98F38
:104EFB009A227B017A007904900001120B4B9000EF
:104F0B0001120B2B2275F85253C4F875C6FF75C5E9
:104F1B00F343C40822759103124FBFE4F5BD124F42
:104F2B00BFEF42BD22759103ED42FEEF3333335495
:104F3B00F842FE22A2019280900082E0A3E0A3F04F
:104F4B002275910375C7AA75C75575A1572275911F
:104F5B000375C7AA75C75575A15F2275910175C7F2
:104F6B00AA75C755E4F5A92275910153B1FE53B249
:104F7B00FEC28022EE30E707C3E49FFFE49EFE22D1
:104F8B00E4908003F0908004F0229005567401F0B9
:104F9B00227B017A00795F227B017A0079232275CB
:104FAB00910343F9802275910353F97F22E4F59124
:104FBB0053E1FE22E5A230E0FB22576865656C20C9
:104FCB002562640A0053544152540D0A00070E0126
:104FDB0003B70102F20307010542010504030701B0
:104FEB00049A01046F060701052E0104B02A4D4CEB
:104FFB0035362A00544F55434800070E01087B01F4
:10500B0007B70307010A030109C5030701095D017E
:10501B00093306070109EF010971070E01061B0190
:10502B00055703070107A301076503070106FD01E8
:0A503B0006D3060701078F010711D5
:10EE80004E544B6200000001070602034040020797
:10EE900000000000000000000000EE800000000004
:10EEA000010001560000020605060100FFFFFFFFFA
:10EEB000FFFFFFFFFFFFFFFFFFFFFFFFFFFFFFFF62
:10EEC000FFFFFFFFFFFFFFFFFFFFFFFFFFFFFFFF52
:10EED000FFFFFFFFFFFFFFFFFFFFFFFFFFFFFFFF42
:10EEE000FFFFFFFFFFFFFFFFFFFFFFFFFFFFFFFF32
:10EEF000FFFFFFFFFFFFFFFFFFFFFFFFFFFFFFFF22
:10EF000086473A13FFFFFFFFFFFFFFFFFFFFFFFFF3
:10EF1000FFFFFFFFFFFFFFFFFFFFFFFFFFFFFFFF01
:10EF2000FFFFFFFFFFFFFFFFFFFFFFFFFFFFFFFFF1
:10EF3000FFFFFFFFFFFFFFFFFFFFFFFF00000000DD
:10EF400074F54F01FFFFFFFFFFFFFFFFFFFFFFFF14
:10EF5000FFFFFFFFFFFFFFFFFFFFFFFFFFFFFFFFC1
:10EF6000FFFFFFFFFFFFFFFFFFFFFFFFFFFFFFFFB1
:10EF7000FFFFFFFFFFFFFFFFFFFFFFFFFFFFFFFFA1
:10EF8000FFFF000000000000000000000000000083
:10EF90000000000000000000000000000000FFFF73
:10EFA000FFFFFFFFFFFFFFFFFFFFFFFFFFFFFFFF71
:10EFB000FFFFFFFFFFFFFFFFFFFFFFFFFFFFFFFF61
:10EFC000FFFFFFFFFFFFFFFFFFFFFFFFFFFFFFFF51
:10EFD000FFFFFFFFFFFFFFFFFFFFFFFFFFFFFFFF41
:10EFE000FFFFFFFFFFFFFFFFFFFFFFFFFFFFFFFF31
:10EFF000FFFFFFFFFFFFFFFFFFFFFFFFFFFFFFFF21
:00000001FF
