:10000000020A80C09130F807D20C859A23C2F830DA
:10001000F905200A02C2F9D09132C109C10AC10B07
:0100200000DF
:10002300020026C091309808D20B8599225398FE7E
:03003300D0913237
:10003B0002003EC0E0C0D075D000C007C0917591E2
:10004B0000AFCAEF24FE601024FE60142403701668
:10005B00751F0153CAFE800E751F0253CAFD800621
:0F006B00751F0453CAFBD091D007D0D0D0E0321C
:10007B00020003E517240BF8E60517227808300772
:10008B0002780BE475F00112082A0207D22000EB6C
:10009B007F2ED2008018EF540F2490D43440D4FF1D
:1000AB0030040BEF24BFB41A0050032461FFE51892
:1000BB0060021518051BE51B7002051A30070D7839
:1000CB0008E475F00112082AEF020818020BD97424
:1000DB0003D2078003E4C207F5178B088A09890A44
:1000EB00E4F518F51AF51BE51860077F201200B927
:1000FB0080F57519FFC201C200C202C203C205C25C
:10010B0006C208120087FF700D3007057F00120032
:10011B00CAAF1BAE1A22B4255FC2D5C20412008728
:10012B00FF24D0B40A00501A75F00A781830D505A0
:10013B0008B6FF0106C6A426F620D5047002D2032A
:10014B0080D924CFB41A00EF5004C2E5D2040202C6
:10015B00CAD20180C6D20080C0D20280BCD2D58068
:10016B00BAD20580B47F201200B92002077401B502
:10017B00180040F112007EFF1200B90200F2D20803
:10018B00D206809512007EFB12007EFA12007EF9D9
:10019B004A4B7006799B7A037BFF20022EE5186091
:1001AB002A7E008E827583001207EB60060EEE65C9
:1001BB001970F0C2D5EBC0E0EAC0E0E9C0E0EE1286
:1001CB000311D0E0F9D0E0FAD0E0FB1207D2FF60C8
:1001DB00AAEBC0E0EAC0E0E9C0E01200B9D0E0242D
:1001EB0001F9D0E03400FAD0E0FBE5190460DCD56E
:1001FB0019D980877BFF7A03790DD202809C791005
:10020B0080027908C206C2088008D2D5790A800418
:10021B00790AC2D5E519047002F519E4FAFDFEFF5F
:10022B0012007EFC7B0820011312007EFD7B103038
:10023B00000A12007EFE12007EFF7B20EC3382D57B
:10024B0092D55013C3E43000069FFFE49EFEE420DA
:10025B0001039DFDE49CFCE4CBF8C201EC700CCFD8
:10026B00CECDCCE824F8F870F38017C3EF33FFEE54
:10027B0033FEED33FDEC33FCEB33FB994002FB0F0C
:10028B00D8E9EB300105F8D0E0C448B201C0E00A70
:10029B00EC4D4E4F78207B0070C2EAB5190040BC84
:1002AB00C0E0120313D0F0D0E0200104C4C0E0C4BE
:1002BB00B201C0F01200A2D0F0D5F0EB0200F212A6
:1002CB0007AC018F5302095801604C015C42020DCF
:1002DB004F021544021549017543021B5501FF4698
:1002EB0001FF4501FF4703BB5001642D01682E013F
:1002FB008B2B016C2301892003A42A0124480000C5
:10030B0001833F3F3F00790AA2D520031430050932
:10031B00B910020404B9080104A2D5200602500149
:10032B00042002689202B518005034C0E07F2030E0
:10033B0003197F30A20272067205500F12036AC2B4
:10034B0002C206C205C2087F30800F300503E9C028
:10035B00E01200B9300503D0E0F9D0E0B518CC308D
:10036B0005177F30B9100C1200B97F583004077F86
:10037B00788003B908031200B93002057F2D020003
:10038B00B97F202008F87F2B2006F322920280CF22
:10039B00286E756C6C2900D20112007E3001F8C2F8
:1003AB0001781830D50108F60201242D5043495825
:1003BB0012007E2403B405004001E49003B69312AF
:1003CB0000AA743A1200AAD203751804020209EBB0
:1003DB00C454F02F1207AC041600041E01042602AD
:1003EB00042E03043604043E05044606044E07049B
:1003FB005610045E11046612046E13047614047E08
:10040B0015048616048E170000049475910153E9A8
:10041B00FE807675910153E9FD806E75910153E96C
:10042B00FB806675910153E9F7805E75910153E985
:10043B00EF805675910153E9DF804E75910153E9B9
:10044B00BF804675910153E97F803E75910143E969
:10045B0001803675910143E902802E75910143E9C4
:10046B0004802675910143E908801E75910143E9CB
:10047B0010801675910143E920800E75910143E9B7
:10048B0040800675910143E980EDC454F02F1207AB
:10049B00AC04E80004F70105060205150305240466
:1004AB000533050542060551070560100568110562
:1004BB00701205781305801405881505901605989C
:1004CB001705A02005AE2105BC2205CA2305D8249B
:1004DB0005E62505F4260602270000060E75910198
:1004EB0043EA0175910153EBFE02060E7591014330
:1004FB00EA0275910153EBFD02060E75910143EA79
:10050B000475910153EBFB02060E75910143EA084A
:10051B0075910153EBF702060E75910143EA1075C5
:10052B00910153EBEF02060E75910143EA20759191
:10053B000153EBDF02060E75910143EA4075910101
:10054B0053EBBF02060E75910143EA80759101537F
:10055B00EB7F02060E75910153EAFE803E75910109
:10056B0053EAFD804475910153EAFB804A75910172
:10057B0053EAF7805075910153EAEF80567591015C
:10058B0053EADF805C75910153EABF80627591017C
:10059B0053EA7F806875910143EA0175910143EB42
:1005AB0001806075910143EA0275910143EB028072
:1005BB005275910143EA0475910143EB0480447534
:1005CB00910143EA0875910143EB0880367591015F
:1005DB0043EA1075910143EB10802875910143EAB2
:1005EB002075910143EB20801A75910143EA407508
:1005FB00910143EB40800C75910143EA80759101A9
:10060B0043EB80EFB4080040030206C490061EF8CB
:10061B0028287302063602064802065A02066C02A6
:10062B00067E0206900206A20206B4E4F5A1E50BD3
:10063B00C454F0FFE50C540F2FF5A1807CE4F5A218
:10064B00E50BC454F0FFE50C540F2FF5A2806AE4C0
:10065B00F5A3E50BC454F0FFE50C540F2FF5A38065
:10066B0058E4F5A4E50BC454F0FFE50C540F2FF53B
:10067B00A48046E4F5A5E50BC454F0FFE50C540F3C
:10068B002FF5A58034E4F5A6E50BC454F0FFE50C7B
:10069B00540F2FF5A68022E4F5A7E50BC454F0FF09
:1006AB00E50C540F2FF5A78010E4F5AFE50BC45400
:1006BB00F0FFE50C540F2FF5AFE4F591439B0222AD
:1006CB0075F008758200EF2FFFEE33FECD33CDCCE6
:1006DB0033CCC58233C5829BED9AEC99E582984069
:1006EB000CF582EE9BFEED9AFDEC99FC0FD5F0D646
:1006FB00E4CEFBE4CDFAE4CCF9A88222B800C1B970
:10070B000059BA002DEC8BF084CFCECDFCE5F0CBAD
:10071B00F97818EF2FFFEE33FEED33FDEC33FCEBE6
:10072B0033FB10D703994004EB99FB0FD8E5E4F9A1
:10073B00FA227818EF2FFFEE33FEED33FDEC33FC8E
:10074B00C933C910D7059BE99A4007EC9BFCE99A82
:10075B00F90FD8E0E4C9FAE4CCFB2275F010EF2FC7
:10076B00FFEE33FEED33FDCC33CCC833C810D707C7
:10077B009BEC9AE899400AED9BFDEC9AFCE899F802
:10078B000FD5F0DAE4CDFBE4CCFAE4C8F922E8604B
:10079B000FECC313FCED13FDEE13FEEF13FFD8F1BB
:1007AB0022D083D082F8E4937012740193700DA35E
:1007BB00A393F8740193F5828883E47374029368AE
:1007CB0060EFA3A3A380DFBB010689828A83E022AB
:1007DB005002E722BBFE02E32289828A83E4932242
:1007EB00BB010CE58229F582E5833AF583E02250C3
:1007FB0006E92582F8E622BBFE06E92582F8E2220D
:10080B00E58229F582E5833AF583E49322BB010661
:10081B0089828A83F0225002F722BBFE01F322FA6F
:10082B00E6FB0808E6F925F0F618E6CA3AF6228F39
:10083B000B8E0A8D098C08E50C24FE604B14605B53
:10084B0024FD600A14605424066003020907E4F5D2
:10085B0091759850438920438780F591438E10F50D
:10086B009153C4DF7B10FAF9F8AF0BAE0AAD09ACAC
:10087B0008120707AB10AA0FA90EA80D120707EF56
:10088B00F404F58D43884022E4F591759850438725
:10089B008053C4F8F59143C4208009E4F59175F8B1
:1008AB005075C4887B10FAF9F8AF0BAE0AAD09ACE2
:1008BB0008120707AB10AA0FA90EA80D120707C342
:1008CB00E49FFFE49EFE74019DFDE49CFC780812FE
:1008DB0007998FC6E47B10FAF9F8AF0BAE0AAD0996
:1008EB00AC08120707AB10AA0FA90EA80D12070729
:1008FB00C3E49FFFE48FC5F59143C408228F08A979
:10090B0005759101E508B40700504790091DF828BB
:10091B00287302093202093802093E02094402090E
:10092B004A020950020956ACB1AEB28025ACB3AE47
:10093B00B4801FACB5AEB68019ACC2AEC38013ACDD
:10094B00B9AEBA800DACBDAEBE8007759102AC845A
:10095B00AE85EB14601214601514601B2403701D1C
:10096B00E9F4520452068015E9F45204800CE94272
:10097B0004E9F452068006E94204E94206E508B4AC
:10098B0007005041900996F82828730209AB020919
:10099B00B00209B50209BA0209BF0209C40209C9AA
:1009AB008CB18EB2228CB38EB4228CB58EB6228CC7
:1009BB00C28EC3228CB98EBA228CBD8EBE2275918B
:1009CB00028C848E8522120BA77BFF7A0C79001286
:1009DB0000E0E4F591A2AF920DC2AF75C7AA75C73F
:1009EB005553A37FA20D92AF75910253F10F7591E1
:1009FB000253940F7B027D807F011209087B027DDD
:100A0B00207F06120908E4FB7D807F01120B1A7B05
:100A1B00017D207F06120B1A750B01750C077B01EC
:100A2B007D02E4FF1203DA750B06750C05E4FB7D02
:100A3B00017F011203DAD2AF4387020000E51F24C6
:100A4B00FE601624FE6020240370ED7BFF7A0C7988
:100A5B00121200E0531FFE80DF7BFF7A0C79241209
:100A6B0000E0531FFD80D17BFF7A0C79361200E03A
:100A7B00531FFB80C3787FE4F6D8FD9000007FFF07
:100A8B007E10E4F0A3DFFCDEFA758123020AD502A7
:100A9B0009D1E493A3F8E493A34003F68001F20891
:100AAB00DFF48029E493A3F85407240CC8C333C4A0
:100ABB00540F4420C8834004F456800146F6DFE40B
:100ACB00800B010204081020408090001AE47E0184
:100ADB009360BCA3FF543F30E509541FFEE493A37E
:100AEB0060010ECF54C025E060A840B8E493A3FA90
:100AFB00E493A3F8E493A3C8C582C8CAC583CAF01C
:100B0B00A3C8C582C8CAC583CADFE9DEE780BE7544
:100B1B009101EB146047046003020BA6EFB40700CE
:100B2B005079900B34F8282873020B49020B4D02B5
:100B3B000B51020B55020B59020B5D020B61ED427F
:100B4B009222ED429322ED429422ED429522ED4208
:100B5B009622ED429722759102ED429722EFB40750
:100B6B00005038900B75F8282873020B8A020B8EF5
:100B7B00020B92020B96020B9A020B9E020BA0ED3C
:100B8B00428A22ED428B22ED428C22ED428D22EDE8
:100B9B00428E228003759102ED428F227591025392
:100BAB00F60F43F66075910153C2FD53C3FD750CEF
:100BBB0002751000750FC2750E01750D007F007E5A
:100BCB00367D6E7C0112083A439802D20922EFB4AB
:100BDB000A07740D120BE4740A309811A899B81314
:100BEB000CC2983098FDA899C298B811F63099FDAF
:100BFB00C299F599220A20504954207465737420C8
:100C0B00737461727421000A205049543020696E4C
:100C1B007465727275707421000A2050495431202A
:100C2B00696E7465727275707421000A2050495494
:0D0C3B003220696E7465727275707421004C
:00000001FF
