:100000000206E7C09130F807D20C859A23C2F83077
:10001000F905200A02C2F9D09132C109C10AC10B07
:0100200000DF
:10002300020026C091309808D20B8599225398FE7E
:03003300D0913237
:10003B0002003EC0E0C0D075D000C007C0917591E2
:10004B0000AFCAEF24FE601024FE60142403701668
:10005B00751F0153CAFE800E751F0253CAFD800621
:0F006B00751F0453CAFBD091D007D0D0D0E0321C
:10007B00020003E517240BF8E60517227808300772
:10008B0002780BE475F0011205130204BB2000EBA0
:10009B007F2ED2008018EF540F2490D43440D4FF1D
:1000AB0030040BEF24BFB41A0050032461FFE51892
:1000BB0060021518051BE51B7002051A30070D7839
:1000CB0008E475F001120513EF0205010207B37482
:1000DB0003D2078003E4C207F5178B088A09890A44
:1000EB00E4F518F51AF51BE51860077F201200B927
:1000FB0080F57519FFC201C200C202C203C205C25C
:10010B0006C208120087FF700D3007057F00120032
:10011B00CAAF1BAE1A22B4255FC2D5C20412008728
:10012B00FF24D0B40A00501A75F00A781830D505A0
:10013B0008B6FF0106C6A426F620D5047002D2032A
:10014B0080D924CFB41A00EF5004C2E5D2040202C6
:10015B00CAD20180C6D20080C0D20280BCD2D58068
:10016B00BAD20580B47F201200B92002077401B502
:10017B00180040F112007EFF1200B90200F2D20803
:10018B00D206809512007EFB12007EFA12007EF9D9
:10019B004A4B7006799B7A037BFF20022EE5186091
:1001AB002A7E008E827583001204D460060EEE65E3
:1001BB001970F0C2D5EBC0E0EAC0E0E9C0E0EE1286
:1001CB000311D0E0F9D0E0FAD0E0FB1204BBFF60E2
:1001DB00AAEBC0E0EAC0E0E9C0E01200B9D0E0242D
:1001EB0001F9D0E03400FAD0E0FBE5190460DCD56E
:1001FB0019D980877BFF7A03790DD202809C791005
:10020B0080027908C206C2088008D2D5790A800418
:10021B00790AC2D5E519047002F519E4FAFDFEFF5F
:10022B0012007EFC7B0820011312007EFD7B103038
:10023B00000A12007EFE12007EFF7B20EC3382D57B
:10024B0092D55013C3E43000069FFFE49EFEE420DA
:10025B0001039DFDE49CFCE4CBF8C201EC700CCFD8
:10026B00CECDCCE824F8F870F38017C3EF33FFEE54
:10027B0033FEED33FDEC33FCEB33FB994002FB0F0C
:10028B00D8E9EB300105F8D0E0C448B201C0E00A70
:10029B00EC4D4E4F78207B0070C2EAB5190040BC84
:1002AB00C0E0120313D0F0D0E0200104C4C0E0C4BE
:1002BB00B201C0F01200A2D0F0D5F0EB0200F212A6
:1002CB000523018F5302095801604C015C42020D5A
:1002DB004F021544021549017543021B5501FF4698
:1002EB0001FF4501FF4703BB5001642D01682E013F
:1002FB008B2B016C2301892003A42A0124480000C5
:10030B0001833F3F3F00790AA2D520031430050932
:10031B00B910020404B9080104A2D5200602500149
:10032B00042002689202B518005034C0E07F2030E0
:10033B0003197F30A20272067205500F12036AC2B4
:10034B0002C206C205C2087F30800F300503E9C028
:10035B00E01200B9300503D0E0F9D0E0B518CC308D
:10036B0005177F30B9100C1200B97F583004077F86
:10037B00788003B908031200B93002057F2D020003
:10038B00B97F202008F87F2B2006F322920280CF22
:10039B00286E756C6C2900D20112007E3001F8C2F8
:1003AB0001781830D50108F60201242D5043495825
:1003BB0012007E2403B405004001E49003B69312AF
:1003CB0000AA743A1200AAD2037518040202097526
:1003DB00F008758200EF2FFFEE33FECD33CDCC331B
:1003EB00CCC58233C5829BED9AEC99E58298400C83
:1003FB00F582EE9BFEED9AFDEC99FC0FD5F0D6E461
:10040B00CEFBE4CDFAE4CCF9A88222B800C1B90046
:10041B0059BA002DEC8BF084CFCECDFCE5F0CBF9A7
:10042B007818EF2FFFEE33FEED33FDEC33FCEB339F
:10043B00FB10D703994004EB99FB0FD8E5E4F9FACD
:10044B00227818EF2FFFEE33FEED33FDEC33FCC9B2
:10045B0033C910D7059BE99A4007EC9BFCE99AF945
:10046B000FD8E0E4C9FAE4CCFB2275F010EF2FFFB4
:10047B00EE33FEED33FDCC33CCC833C810D7079B1E
:10048B00EC9AE899400AED9BFDEC9AFCE899F80F81
:10049B00D5F0DAE4CDFBE4CCFAE4C8F922E8600F3E
:1004AB00ECC313FCED13FDEE13FEEF13FFD8F1229B
:1004BB00BB010689828A83E0225002E722BBFE023F
:1004CB00E32289828A83E49322BB010CE58229F51E
:1004DB0082E5833AF583E0225006E92582F8E6228D
:1004EB00BBFE06E92582F8E222E58229F582E58347
:1004FB003AF583E49322BB010689828A83F022506A
:10050B0002F722BBFE01F322FAE6FB0808E6F92507
:10051B00F0F618E6CA3AF622D083D082F8E493704C
:10052B0012740193700DA3A393F8740193F5828851
:10053B0083E4737402936860EFA3A3A380DF1207B5
:10054B00817BFF7A0779DA1200E0E4F591A2AF9292
:10055B000DC2AF75C7AA75C75553A37FA20D92AF36
:10056B0075910253F10F75910143B38053B47F75AD
:10057B00910143938075910253F40F75910143B52B
:10058B002053B6DF75910143942075910253E90F07
:10059B0075910143C22053C3DFF591F5CA759101E3
:1005AB0053E9FE43EA0153EBFE75A1177591014325
:1005BB00E90243EA0253EBFD75A22575910143E96C
:1005CB000443EA0443EB0475A335F591439B02D234
:1005DB00AF4387020000E51F24FE601624FE602057
:1005EB00240370ED7BFF7A0779EC1200E0531FFEBA
:1005FB0080DF7BFF7A0779FE1200E0531FFD80D16D
:10060B007BFF7A0879101200E0531FFB80C38F0B1E
:10061B008E0A8D098C08E50C24FE604B14605B245C
:10062B00FD600A146054240660030206E6E4F591AB
:10063B00759850438920438780F591438E10F5912F
:10064B0053C4DF7B10FAF9F8AF0BAE0AAD09AC0857
:10065B00120416AB10AA0FA90EA80D120416EFF474
:10066B0004F58D43884022E4F591759850438780BB
:10067B0053C4F8F59143C4208009E4F59175F85003
:10068B0075C4887B10FAF9F8AF0BAE0AAD09AC084C
:10069B00120416AB10AA0FA90EA80D120416C3E470
:1006AB009FFFE49EFE74019DFDE49CFC7808120400
:1006BB00A88FC6E47B10FAF9F8AF0BAE0AAD09AC04
:1006CB0008120416AB10AA0FA90EA80D120416C31C
:1006DB00E49FFFE48FC5F59143C40822787FE4F6CD
:1006EB00D8FD9000007FFF7E10E4F0A3DFFCDEFA64
:1006FB0075812302073C020549E493A3F8E493A315
:10070B004003F68001F208DFF48029E493A3F85448
:10071B0007240CC8C333C4540F4420C8834004F4CB
:10072B0056800146F6DFE4800B01020408102040DE
:10073B008090001AE47E019360BCA3FF543F30E528
:10074B0009541FFEE493A360010ECF54C025E06053
:10075B00A840B8E493A3FAE493A3F8E493A3C8C521
:10076B0082C8CAC583CAF0A3C8C582C8CAC583CA12
:10077B00DFE9DEE780BE75910253F60F43F6607535
:10078B00910153C2FD53C3FD750C02751000750F1B
:10079B00C2750E01750D007F007E367D6E7C0112D9
:1007AB000619439802D20922EFB40A07740D1207F7
:1007BB00BE740A309811A899B8130CC2983098FDE2
:1007CB00A899C298B811F63099FDC299F599220AE9
:1007DB0020504954207465737420737461727421B2
:1007EB00000A205049543020696E7465727275701E
:1007FB007421000A205049543120696E746572725D
:10080B0075707421000A205049543220696E74654A
:07081B007272757074210078
:00000001FF
